{
  "_format": "hh-sol-artifact-1",
  "contractName": "MyNFT",
  "sourceName": "contracts/MyNFT.sol",
  "abi": [
    {
      "inputs": [],
      "stateMutability": "nonpayable",
      "type": "constructor"
    },
    {
      "anonymous": false,
      "inputs": [
        {
          "indexed": true,
          "internalType": "address",
          "name": "owner",
          "type": "address"
        },
        {
          "indexed": true,
          "internalType": "address",
          "name": "approved",
          "type": "address"
        },
        {
          "indexed": true,
          "internalType": "uint256",
          "name": "tokenId",
          "type": "uint256"
        }
      ],
      "name": "Approval",
      "type": "event"
    },
    {
      "anonymous": false,
      "inputs": [
        {
          "indexed": true,
          "internalType": "address",
          "name": "owner",
          "type": "address"
        },
        {
          "indexed": true,
          "internalType": "address",
          "name": "operator",
          "type": "address"
        },
        {
          "indexed": false,
          "internalType": "bool",
          "name": "approved",
          "type": "bool"
        }
      ],
      "name": "ApprovalForAll",
      "type": "event"
    },
    {
      "anonymous": false,
      "inputs": [
        {
          "indexed": true,
          "internalType": "address",
          "name": "previousOwner",
          "type": "address"
        },
        {
          "indexed": true,
          "internalType": "address",
          "name": "newOwner",
          "type": "address"
        }
      ],
      "name": "OwnershipTransferred",
      "type": "event"
    },
    {
      "anonymous": false,
      "inputs": [
        {
          "indexed": true,
          "internalType": "address",
          "name": "from",
          "type": "address"
        },
        {
          "indexed": true,
          "internalType": "address",
          "name": "to",
          "type": "address"
        },
        {
          "indexed": true,
          "internalType": "uint256",
          "name": "tokenId",
          "type": "uint256"
        }
      ],
      "name": "Transfer",
      "type": "event"
    },
    {
      "inputs": [
        {
          "internalType": "uint256",
          "name": "_index",
          "type": "uint256"
        }
      ],
      "name": "addToWarRoom",
      "outputs": [],
      "stateMutability": "nonpayable",
      "type": "function"
    },
    {
      "inputs": [
        {
          "internalType": "address",
          "name": "to",
          "type": "address"
        },
        {
          "internalType": "uint256",
          "name": "tokenId",
          "type": "uint256"
        }
      ],
      "name": "approve",
      "outputs": [],
      "stateMutability": "nonpayable",
      "type": "function"
    },
    {
      "inputs": [
        {
          "internalType": "address",
          "name": "owner",
          "type": "address"
        }
      ],
      "name": "balanceOf",
      "outputs": [
        {
          "internalType": "uint256",
          "name": "",
          "type": "uint256"
        }
      ],
      "stateMutability": "view",
      "type": "function"
    },
    {
      "inputs": [
        {
          "internalType": "address",
          "name": "_address",
          "type": "address"
        },
        {
          "internalType": "uint256",
          "name": "_index",
          "type": "uint256"
        }
      ],
      "name": "canSwallowNFT",
      "outputs": [
        {
          "internalType": "bool",
          "name": "",
          "type": "bool"
        }
      ],
      "stateMutability": "view",
      "type": "function"
    },
    {
      "inputs": [
        {
          "internalType": "uint256",
          "name": "_index",
          "type": "uint256"
        }
      ],
      "name": "getAllNFTS",
      "outputs": [
        {
          "components": [
            {
              "internalType": "uint256",
              "name": "tokenId",
              "type": "uint256"
            },
            {
              "internalType": "address payable",
              "name": "owner",
              "type": "address"
            },
            {
              "internalType": "uint256",
              "name": "powerValue",
              "type": "uint256"
            },
            {
              "internalType": "string",
              "name": "name",
              "type": "string"
            }
          ],
          "internalType": "struct MyNFT.NFT",
          "name": "",
          "type": "tuple"
        }
      ],
      "stateMutability": "view",
      "type": "function"
    },
    {
      "inputs": [
        {
          "internalType": "uint256",
          "name": "tokenId",
          "type": "uint256"
        }
      ],
      "name": "getApproved",
      "outputs": [
        {
          "internalType": "address",
          "name": "",
          "type": "address"
        }
      ],
      "stateMutability": "view",
      "type": "function"
    },
    {
      "inputs": [],
      "name": "getNFTlength",
      "outputs": [
        {
          "internalType": "uint256",
          "name": "",
          "type": "uint256"
        }
      ],
      "stateMutability": "view",
      "type": "function"
    },
    {
      "inputs": [
        {
          "internalType": "uint256",
          "name": "_index",
          "type": "uint256"
        }
      ],
      "name": "getNft",
      "outputs": [
        {
          "components": [
            {
              "internalType": "uint256",
              "name": "tokenId",
              "type": "uint256"
            },
            {
              "internalType": "address payable",
              "name": "owner",
              "type": "address"
            },
            {
              "internalType": "uint256",
              "name": "powerValue",
              "type": "uint256"
            },
            {
              "internalType": "bool",
              "name": "canFight",
              "type": "bool"
            }
          ],
          "internalType": "struct MyNFT.NFT",
          "name": "",
          "type": "tuple"
        }
      ],
      "stateMutability": "view",
      "type": "function"
    },
    {
      "inputs": [
        {
          "internalType": "address",
          "name": "_address",
          "type": "address"
        }
      ],
      "name": "hasMinted",
      "outputs": [
        {
          "internalType": "bool",
          "name": "",
          "type": "bool"
        }
      ],
      "stateMutability": "view",
      "type": "function"
    },
    {
      "inputs": [
        {
          "internalType": "address",
          "name": "owner",
          "type": "address"
        },
        {
          "internalType": "address",
          "name": "operator",
          "type": "address"
        }
      ],
      "name": "isApprovedForAll",
      "outputs": [
        {
          "internalType": "bool",
          "name": "",
          "type": "bool"
        }
      ],
      "stateMutability": "view",
      "type": "function"
    },
    {
      "inputs": [
        {
          "internalType": "string",
          "name": "name",
          "type": "string"
        }
      ],
      "name": "mint",
      "outputs": [],
      "stateMutability": "payable",
      "type": "function"
    },
    {
      "inputs": [
        {
          "internalType": "address",
          "name": "",
          "type": "address"
        }
      ],
      "name": "minters",
      "outputs": [
        {
          "internalType": "bool",
          "name": "",
          "type": "bool"
        }
      ],
      "stateMutability": "view",
      "type": "function"
    },
    {
      "inputs": [],
      "name": "name",
      "outputs": [
        {
          "internalType": "string",
          "name": "",
          "type": "string"
        }
      ],
      "stateMutability": "view",
      "type": "function"
    },
    {
      "inputs": [],
      "name": "owner",
      "outputs": [
        {
          "internalType": "address",
          "name": "",
          "type": "address"
        }
      ],
      "stateMutability": "view",
      "type": "function"
    },
    {
      "inputs": [
        {
          "internalType": "uint256",
          "name": "tokenId",
          "type": "uint256"
        }
      ],
      "name": "ownerOf",
      "outputs": [
        {
          "internalType": "address",
          "name": "",
          "type": "address"
        }
      ],
      "stateMutability": "view",
      "type": "function"
    },
    {
      "inputs": [
        {
          "internalType": "address",
          "name": "",
          "type": "address"
        }
      ],
      "name": "playerpowervalue",
      "outputs": [
        {
          "internalType": "uint256",
          "name": "",
          "type": "uint256"
        }
      ],
      "stateMutability": "view",
      "type": "function"
    },
    {
      "inputs": [
        {
          "internalType": "uint256",
          "name": "_index",
          "type": "uint256"
        }
      ],
      "name": "removeFromWarRoom",
      "outputs": [],
      "stateMutability": "nonpayable",
      "type": "function"
    },
    {
      "inputs": [],
      "name": "renounceOwnership",
      "outputs": [],
      "stateMutability": "nonpayable",
      "type": "function"
    },
    {
      "inputs": [
        {
          "internalType": "address",
          "name": "from",
          "type": "address"
        },
        {
          "internalType": "address",
          "name": "to",
          "type": "address"
        },
        {
          "internalType": "uint256",
          "name": "tokenId",
          "type": "uint256"
        }
      ],
      "name": "safeTransferFrom",
      "outputs": [],
      "stateMutability": "nonpayable",
      "type": "function"
    },
    {
      "inputs": [
        {
          "internalType": "address",
          "name": "from",
          "type": "address"
        },
        {
          "internalType": "address",
          "name": "to",
          "type": "address"
        },
        {
          "internalType": "uint256",
          "name": "tokenId",
          "type": "uint256"
        },
        {
          "internalType": "bytes",
          "name": "_data",
          "type": "bytes"
        }
      ],
      "name": "safeTransferFrom",
      "outputs": [],
      "stateMutability": "nonpayable",
      "type": "function"
    },
    {
      "inputs": [
        {
          "internalType": "address",
          "name": "operator",
          "type": "address"
        },
        {
          "internalType": "bool",
          "name": "approved",
          "type": "bool"
        }
      ],
      "name": "setApprovalForAll",
      "outputs": [],
      "stateMutability": "nonpayable",
      "type": "function"
    },
    {
      "inputs": [
        {
          "internalType": "bytes4",
          "name": "interfaceId",
          "type": "bytes4"
        }
      ],
      "name": "supportsInterface",
      "outputs": [
        {
          "internalType": "bool",
          "name": "",
          "type": "bool"
        }
      ],
      "stateMutability": "view",
      "type": "function"
    },
    {
      "inputs": [
        {
          "internalType": "uint256",
          "name": "_index",
          "type": "uint256"
        }
      ],
      "name": "swallowNFT",
      "outputs": [],
      "stateMutability": "nonpayable",
      "type": "function"
    },
    {
      "inputs": [],
      "name": "symbol",
      "outputs": [
        {
          "internalType": "string",
          "name": "",
          "type": "string"
        }
      ],
      "stateMutability": "view",
      "type": "function"
    },
    {
      "inputs": [
        {
          "internalType": "uint256",
          "name": "index",
          "type": "uint256"
        }
      ],
      "name": "tokenByIndex",
      "outputs": [
        {
          "internalType": "uint256",
          "name": "",
          "type": "uint256"
        }
      ],
      "stateMutability": "view",
      "type": "function"
    },
    {
      "inputs": [
        {
          "internalType": "address",
          "name": "owner",
          "type": "address"
        },
        {
          "internalType": "uint256",
          "name": "index",
          "type": "uint256"
        }
      ],
      "name": "tokenOfOwnerByIndex",
      "outputs": [
        {
          "internalType": "uint256",
          "name": "",
          "type": "uint256"
        }
      ],
      "stateMutability": "view",
      "type": "function"
    },
    {
      "inputs": [
        {
          "internalType": "uint256",
          "name": "tokenId",
          "type": "uint256"
        }
      ],
      "name": "tokenURI",
      "outputs": [
        {
          "internalType": "string",
          "name": "",
          "type": "string"
        }
      ],
      "stateMutability": "view",
      "type": "function"
    },
    {
      "inputs": [],
      "name": "totalSupply",
      "outputs": [
        {
          "internalType": "uint256",
          "name": "",
          "type": "uint256"
        }
      ],
      "stateMutability": "view",
      "type": "function"
    },
    {
      "inputs": [
        {
          "internalType": "address",
          "name": "from",
          "type": "address"
        },
        {
          "internalType": "address",
          "name": "to",
          "type": "address"
        },
        {
          "internalType": "uint256",
          "name": "tokenId",
          "type": "uint256"
        }
      ],
      "name": "transferFrom",
      "outputs": [],
      "stateMutability": "nonpayable",
      "type": "function"
    },
    {
      "inputs": [
        {
          "internalType": "address",
          "name": "newOwner",
          "type": "address"
        }
      ],
      "name": "transferOwnership",
      "outputs": [],
      "stateMutability": "nonpayable",
      "type": "function"
    },
    {
      "inputs": [
        {
          "internalType": "uint256",
          "name": "_index",
          "type": "uint256"
        }
      ],
      "name": "upgradeNFT",
      "outputs": [],
      "stateMutability": "payable",
      "type": "function"
    }
  ],
  "bytecode": "0x60806040526000600d553480156200001657600080fd5b506040518060400160405280600781526020017f47414d454e4654000000000000000000000000000000000000000000000000008152506040518060400160405280600481526020017f474e46540000000000000000000000000000000000000000000000000000000081525081600090805190602001906200009b929190620001ab565b508060019080519060200190620000b4929190620001ab565b505050620000d7620000cb620000dd60201b60201c565b620000e560201b60201c565b620002c0565b600033905090565b6000600b60009054906101000a900473ffffffffffffffffffffffffffffffffffffffff16905081600b60006101000a81548173ffffffffffffffffffffffffffffffffffffffff021916908373ffffffffffffffffffffffffffffffffffffffff1602179055508173ffffffffffffffffffffffffffffffffffffffff168173ffffffffffffffffffffffffffffffffffffffff167f8be0079c531659141344cd1fd0a4f28419497f9722a3daafe3b4186f6b6457e060405160405180910390a35050565b828054620001b9906200025b565b90600052602060002090601f016020900481019282620001dd576000855562000229565b82601f10620001f857805160ff191683800117855562000229565b8280016001018555821562000229579182015b82811115620002285782518255916020019190600101906200020b565b5b5090506200023891906200023c565b5090565b5b80821115620002575760008160009055506001016200023d565b5090565b600060028204905060018216806200027457607f821691505b602082108114156200028b576200028a62000291565b5b50919050565b7f4e487b7100000000000000000000000000000000000000000000000000000000600052602260045260246000fd5b6147e580620002d06000396000f3fe6080604052600436106101c25760003560e01c8063715018a6116100f7578063d41daa2b11610095578063f46eccc411610064578063f46eccc41461065a578063f648f43914610697578063ffb58973146106d4578063ffdbac4314610711576101c2565b8063d41daa2b146105ad578063d85d3d27146105d8578063e985e9c5146105f4578063f2fde38b14610631576101c2565b806395d89b41116100d157806395d89b41146104f3578063a22cb4651461051e578063b88d4fde14610547578063c87b56dd14610570576101c2565b8063715018a6146104955780638da5cb5b146104ac57806390690c9a146104d7576101c2565b80632f745c59116101645780634cc822151161013e5780634cc82215146103b55780634f6ccce7146103de5780636352211e1461041b57806370a0823114610458576101c2565b80632f745c591461031257806338e21cce1461034f57806342842e0e1461038c576101c2565b8063095ea7b3116101a0578063095ea7b31461026c57806314dfa3411461029557806318160ddd146102be57806323b872dd146102e9576101c2565b806301ffc9a7146101c757806306fdde0314610204578063081812fc1461022f575b600080fd5b3480156101d357600080fd5b506101ee60048036038101906101e9919061335c565b61074e565b6040516101fb919061393e565b60405180910390f35b34801561021057600080fd5b50610219610760565b6040516102269190613959565b60405180910390f35b34801561023b57600080fd5b50610256600480360381019061025191906133ef565b6107f2565b60405161026391906138d7565b60405180910390f35b34801561027857600080fd5b50610293600480360381019061028e9190613320565b610877565b005b3480156102a157600080fd5b506102bc60048036038101906102b791906133ef565b61098f565b005b3480156102ca57600080fd5b506102d3610c71565b6040516102e09190613cb6565b60405180910390f35b3480156102f557600080fd5b50610310600480360381019061030b919061321a565b610c7e565b005b34801561031e57600080fd5b5061033960048036038101906103349190613320565b610cde565b6040516103469190613cb6565b60405180910390f35b34801561035b57600080fd5b50610376600480360381019061037191906131b5565b610d83565b604051610383919061393e565b60405180910390f35b34801561039857600080fd5b506103b360048036038101906103ae919061321a565b610df1565b005b3480156103c157600080fd5b506103dc60048036038101906103d791906133ef565b610e11565b005b3480156103ea57600080fd5b50610405600480360381019061040091906133ef565b610ffe565b6040516104129190613cb6565b60405180910390f35b34801561042757600080fd5b50610442600480360381019061043d91906133ef565b611095565b60405161044f91906138d7565b60405180910390f35b34801561046457600080fd5b5061047f600480360381019061047a91906131b5565b611147565b60405161048c9190613cb6565b60405180910390f35b3480156104a157600080fd5b506104aa6111ff565b005b3480156104b857600080fd5b506104c1611287565b6040516104ce91906138d7565b60405180910390f35b6104f160048036038101906104ec91906133ef565b6112b1565b005b3480156104ff57600080fd5b50610508611427565b6040516105159190613959565b60405180910390f35b34801561052a57600080fd5b50610545600480360381019061054091906132e4565b6114b9565b005b34801561055357600080fd5b5061056e60048036038101906105699190613269565b6114cf565b005b34801561057c57600080fd5b50610597600480360381019061059291906133ef565b611531565b6040516105a49190613959565b60405180910390f35b3480156105b957600080fd5b506105c2611543565b6040516105cf9190613cb6565b60405180910390f35b6105f260048036038101906105ed91906133ae565b61154d565b005b34801561060057600080fd5b5061061b600480360381019061061691906131de565b611586565b604051610628919061393e565b60405180910390f35b34801561063d57600080fd5b50610658600480360381019061065391906131b5565b61161a565b005b34801561066657600080fd5b50610681600480360381019061067c91906131b5565b611712565b60405161068e919061393e565b60405180910390f35b3480156106a357600080fd5b506106be60048036038101906106b991906133ef565b611732565b6040516106cb9190613c9b565b60405180910390f35b3480156106e057600080fd5b506106fb60048036038101906106f691906131b5565b6117c9565b6040516107089190613cb6565b60405180910390f35b34801561071d57600080fd5b5061073860048036038101906107339190613320565b6117e1565b604051610745919061393e565b60405180910390f35b6000610759826118b9565b9050919050565b60606000805461076f90613f48565b80601f016020809104026020016040519081016040528092919081815260200182805461079b90613f48565b80156107e85780601f106107bd576101008083540402835291602001916107e8565b820191906000526020600020905b8154815290600101906020018083116107cb57829003601f168201915b5050505050905090565b60006107fd82611933565b61083c576040517f08c379a000000000000000000000000000000000000000000000000000000000815260040161083390613bbb565b60405180910390fd5b6004600083815260200190815260200160002060009054906101000a900473ffffffffffffffffffffffffffffffffffffffff169050919050565b600061088282611095565b90508073ffffffffffffffffffffffffffffffffffffffff168373ffffffffffffffffffffffffffffffffffffffff1614156108f3576040517f08c379a00000000000000000000000000000000000000000000000000000000081526004016108ea90613c1b565b60405180910390fd5b8073ffffffffffffffffffffffffffffffffffffffff1661091261199f565b73ffffffffffffffffffffffffffffffffffffffff16148061094157506109408161093b61199f565b611586565b5b610980576040517f08c379a000000000000000000000000000000000000000000000000000000000815260040161097790613afb565b60405180910390fd5b61098a83836119a7565b505050565b33600e60008273ffffffffffffffffffffffffffffffffffffffff1673ffffffffffffffffffffffffffffffffffffffff16815260200190815260200160002060009054906101000a900460ff16610a1c576040517f08c379a0000000000000000000000000000000000000000000000000000000008152600401610a139061397b565b60405180910390fd5b33826000600f600083815260200190815260200160002060010160009054906101000a900473ffffffffffffffffffffffffffffffffffffffff169050601060008273ffffffffffffffffffffffffffffffffffffffff1673ffffffffffffffffffffffffffffffffffffffff16815260200190815260200160002054601060008573ffffffffffffffffffffffffffffffffffffffff1673ffffffffffffffffffffffffffffffffffffffff1681526020019081526020016000205411610b19576040517f08c379a0000000000000000000000000000000000000000000000000000000008152600401610b1090613c7b565b60405180910390fd5b600f600086815260200190815260200160002060010160009054906101000a900473ffffffffffffffffffffffffffffffffffffffff1673ffffffffffffffffffffffffffffffffffffffff163373ffffffffffffffffffffffffffffffffffffffff161415610bbe576040517f08c379a0000000000000000000000000000000000000000000000000000000008152600401610bb590613adb565b60405180910390fd5b610c15600f600087815260200190815260200160002060010160009054906101000a900473ffffffffffffffffffffffffffffffffffffffff1633600f600089815260200190815260200160002060000154611a60565b33600f600087815260200190815260200160002060010160006101000a81548173ffffffffffffffffffffffffffffffffffffffff021916908373ffffffffffffffffffffffffffffffffffffffff1602179055505050505050565b6000600880549050905090565b610c8f610c8961199f565b82611cc7565b610cce576040517f08c379a0000000000000000000000000000000000000000000000000000000008152600401610cc590613c3b565b60405180910390fd5b610cd9838383611a60565b505050565b6000610ce983611147565b8210610d2a576040517f08c379a0000000000000000000000000000000000000000000000000000000008152600401610d219061399b565b60405180910390fd5b600660008473ffffffffffffffffffffffffffffffffffffffff1673ffffffffffffffffffffffffffffffffffffffff168152602001908152602001600020600083815260200190815260200160002054905092915050565b600060011515600e60008473ffffffffffffffffffffffffffffffffffffffff1673ffffffffffffffffffffffffffffffffffffffff16815260200190815260200160002060009054906101000a900460ff1615151415610de75760019050610dec565b600090505b919050565b610e0c838383604051806020016040528060008152506114cf565b505050565b600f600082815260200190815260200160002060010160009054906101000a900473ffffffffffffffffffffffffffffffffffffffff1673ffffffffffffffffffffffffffffffffffffffff163373ffffffffffffffffffffffffffffffffffffffff1614610eb5576040517f08c379a0000000000000000000000000000000000000000000000000000000008152600401610eac90613a3b565b60405180910390fd5b600f60006001600d54610ec89190613e22565b8152602001908152602001600020600f6000838152602001908152602001600020600082015481600001556001820160009054906101000a900473ffffffffffffffffffffffffffffffffffffffff168160010160006101000a81548173ffffffffffffffffffffffffffffffffffffffff021916908373ffffffffffffffffffffffffffffffffffffffff16021790555060028201548160020155905050600f60006001600d54610f7a9190613e22565b81526020019081526020016000206000808201600090556001820160006101000a81549073ffffffffffffffffffffffffffffffffffffffff021916905560028201600090555050600d6000815480929190610fd590613f1e565b9190505550610ffb3033600f600085815260200190815260200160002060000154611a60565b50565b6000611008610c71565b8210611049576040517f08c379a000000000000000000000000000000000000000000000000000000000815260040161104090613c5b565b60405180910390fd5b60088281548110611083577f4e487b7100000000000000000000000000000000000000000000000000000000600052603260045260246000fd5b90600052602060002001549050919050565b6000806002600084815260200190815260200160002060009054906101000a900473ffffffffffffffffffffffffffffffffffffffff169050600073ffffffffffffffffffffffffffffffffffffffff168173ffffffffffffffffffffffffffffffffffffffff16141561113e576040517f08c379a000000000000000000000000000000000000000000000000000000000815260040161113590613b3b565b60405180910390fd5b80915050919050565b60008073ffffffffffffffffffffffffffffffffffffffff168273ffffffffffffffffffffffffffffffffffffffff1614156111b8576040517f08c379a00000000000000000000000000000000000000000000000000000000081526004016111af90613b1b565b60405180910390fd5b600360008373ffffffffffffffffffffffffffffffffffffffff1673ffffffffffffffffffffffffffffffffffffffff168152602001908152602001600020549050919050565b61120761199f565b73ffffffffffffffffffffffffffffffffffffffff16611225611287565b73ffffffffffffffffffffffffffffffffffffffff161461127b576040517f08c379a000000000000000000000000000000000000000000000000000000000815260040161127290613bdb565b60405180910390fd5b6112856000611da5565b565b6000600b60009054906101000a900473ffffffffffffffffffffffffffffffffffffffff16905090565b600f600082815260200190815260200160002060010160009054906101000a900473ffffffffffffffffffffffffffffffffffffffff1673ffffffffffffffffffffffffffffffffffffffff163373ffffffffffffffffffffffffffffffffffffffff1614611355576040517f08c379a000000000000000000000000000000000000000000000000000000000815260040161134c90613a5b565b60405180910390fd5b61135d611287565b73ffffffffffffffffffffffffffffffffffffffff166108fc349081150290604051600060405180830381858888f193505050501580156113a2573d6000803e3d6000fd5b50600f600082815260200190815260200160002060020160008154809291906113ca90613fab565b9190505550601060003373ffffffffffffffffffffffffffffffffffffffff1673ffffffffffffffffffffffffffffffffffffffff168152602001908152602001600020600081548092919061141f90613fab565b919050555050565b60606001805461143690613f48565b80601f016020809104026020016040519081016040528092919081815260200182805461146290613f48565b80156114af5780601f10611484576101008083540402835291602001916114af565b820191906000526020600020905b81548152906001019060200180831161149257829003601f168201915b5050505050905090565b6114cb6114c461199f565b8383611e6b565b5050565b6114e06114da61199f565b83611cc7565b61151f576040517f08c379a000000000000000000000000000000000000000000000000000000000815260040161151690613c3b565b60405180910390fd5b61152b84848484611fd8565b50505050565b606061153c82612034565b9050919050565b6000600d54905090565b6000611559600c612186565b9050611565600c612194565b61156f33826121aa565b61157981836121c8565b6115828161223c565b5050565b6000600560008473ffffffffffffffffffffffffffffffffffffffff1673ffffffffffffffffffffffffffffffffffffffff16815260200190815260200160002060008373ffffffffffffffffffffffffffffffffffffffff1673ffffffffffffffffffffffffffffffffffffffff16815260200190815260200160002060009054906101000a900460ff16905092915050565b61162261199f565b73ffffffffffffffffffffffffffffffffffffffff16611640611287565b73ffffffffffffffffffffffffffffffffffffffff1614611696576040517f08c379a000000000000000000000000000000000000000000000000000000000815260040161168d90613bdb565b60405180910390fd5b600073ffffffffffffffffffffffffffffffffffffffff168173ffffffffffffffffffffffffffffffffffffffff161415611706576040517f08c379a00000000000000000000000000000000000000000000000000000000081526004016116fd906139db565b60405180910390fd5b61170f81611da5565b50565b600e6020528060005260406000206000915054906101000a900460ff1681565b61173a612fa2565b600f6000838152602001908152602001600020604051806060016040529081600082015481526020016001820160009054906101000a900473ffffffffffffffffffffffffffffffffffffffff1673ffffffffffffffffffffffffffffffffffffffff1673ffffffffffffffffffffffffffffffffffffffff1681526020016002820154815250509050919050565b60106020528060005260406000206000915090505481565b600080600f600084815260200190815260200160002060010160009054906101000a900473ffffffffffffffffffffffffffffffffffffffff169050601060008273ffffffffffffffffffffffffffffffffffffffff1673ffffffffffffffffffffffffffffffffffffffff16815260200190815260200160002054601060008673ffffffffffffffffffffffffffffffffffffffff1673ffffffffffffffffffffffffffffffffffffffff1681526020019081526020016000205411156118ad5760019150506118b3565b60009150505b92915050565b60007f780e9d63000000000000000000000000000000000000000000000000000000007bffffffffffffffffffffffffffffffffffffffffffffffffffffffff1916827bffffffffffffffffffffffffffffffffffffffffffffffffffffffff1916148061192c575061192b82612356565b5b9050919050565b60008073ffffffffffffffffffffffffffffffffffffffff166002600084815260200190815260200160002060009054906101000a900473ffffffffffffffffffffffffffffffffffffffff1673ffffffffffffffffffffffffffffffffffffffff1614159050919050565b600033905090565b816004600083815260200190815260200160002060006101000a81548173ffffffffffffffffffffffffffffffffffffffff021916908373ffffffffffffffffffffffffffffffffffffffff160217905550808273ffffffffffffffffffffffffffffffffffffffff16611a1a83611095565b73ffffffffffffffffffffffffffffffffffffffff167f8c5be1e5ebec7d5bd14f71427d1e84f3dd0314c0f7b2291e5b200ac8c7c3b92560405160405180910390a45050565b8273ffffffffffffffffffffffffffffffffffffffff16611a8082611095565b73ffffffffffffffffffffffffffffffffffffffff1614611ad6576040517f08c379a0000000000000000000000000000000000000000000000000000000008152600401611acd906139fb565b60405180910390fd5b600073ffffffffffffffffffffffffffffffffffffffff168273ffffffffffffffffffffffffffffffffffffffff161415611b46576040517f08c379a0000000000000000000000000000000000000000000000000000000008152600401611b3d90613a7b565b60405180910390fd5b611b51838383612438565b611b5c6000826119a7565b6001600360008573ffffffffffffffffffffffffffffffffffffffff1673ffffffffffffffffffffffffffffffffffffffff1681526020019081526020016000206000828254611bac9190613e22565b925050819055506001600360008473ffffffffffffffffffffffffffffffffffffffff1673ffffffffffffffffffffffffffffffffffffffff1681526020019081526020016000206000828254611c039190613d9b565b92505081905550816002600083815260200190815260200160002060006101000a81548173ffffffffffffffffffffffffffffffffffffffff021916908373ffffffffffffffffffffffffffffffffffffffff160217905550808273ffffffffffffffffffffffffffffffffffffffff168473ffffffffffffffffffffffffffffffffffffffff167fddf252ad1be2c89b69c2b068fc378daa952ba7f163c4a11628f55a4df523b3ef60405160405180910390a4611cc2838383612448565b505050565b6000611cd282611933565b611d11576040517f08c379a0000000000000000000000000000000000000000000000000000000008152600401611d0890613abb565b60405180910390fd5b6000611d1c83611095565b90508073ffffffffffffffffffffffffffffffffffffffff168473ffffffffffffffffffffffffffffffffffffffff161480611d8b57508373ffffffffffffffffffffffffffffffffffffffff16611d73846107f2565b73ffffffffffffffffffffffffffffffffffffffff16145b80611d9c5750611d9b8185611586565b5b91505092915050565b6000600b60009054906101000a900473ffffffffffffffffffffffffffffffffffffffff16905081600b60006101000a81548173ffffffffffffffffffffffffffffffffffffffff021916908373ffffffffffffffffffffffffffffffffffffffff1602179055508173ffffffffffffffffffffffffffffffffffffffff168173ffffffffffffffffffffffffffffffffffffffff167f8be0079c531659141344cd1fd0a4f28419497f9722a3daafe3b4186f6b6457e060405160405180910390a35050565b8173ffffffffffffffffffffffffffffffffffffffff168373ffffffffffffffffffffffffffffffffffffffff161415611eda576040517f08c379a0000000000000000000000000000000000000000000000000000000008152600401611ed190613a9b565b60405180910390fd5b80600560008573ffffffffffffffffffffffffffffffffffffffff1673ffffffffffffffffffffffffffffffffffffffff16815260200190815260200160002060008473ffffffffffffffffffffffffffffffffffffffff1673ffffffffffffffffffffffffffffffffffffffff16815260200190815260200160002060006101000a81548160ff0219169083151502179055508173ffffffffffffffffffffffffffffffffffffffff168373ffffffffffffffffffffffffffffffffffffffff167f17307eab39ab6107e8899845ad3d59bd9653f200f220920489ca2b5937696c3183604051611fcb919061393e565b60405180910390a3505050565b611fe3848484611a60565b611fef8484848461244d565b61202e576040517f08c379a0000000000000000000000000000000000000000000000000000000008152600401612025906139bb565b60405180910390fd5b50505050565b606061203f82611933565b61207e576040517f08c379a000000000000000000000000000000000000000000000000000000000815260040161207590613b9b565b60405180910390fd5b6000600a6000848152602001908152602001600020805461209e90613f48565b80601f01602080910402602001604051908101604052809291908181526020018280546120ca90613f48565b80156121175780601f106120ec57610100808354040283529160200191612117565b820191906000526020600020905b8154815290600101906020018083116120fa57829003601f168201915b5050505050905060006121286125e4565b905060008151141561213e578192505050612181565b60008251111561217357808260405160200161215b9291906138b3565b60405160208183030381529060405292505050612181565b61217c846125fb565b925050505b919050565b600081600001549050919050565b6001816000016000828254019250508190555050565b6121c48282604051806020016040528060008152506126a2565b5050565b6121d182611933565b612210576040517f08c379a000000000000000000000000000000000000000000000000000000000815260040161220790613b5b565b60405180910390fd5b80600a60008481526020019081526020016000209080519060200190612237929190612fd9565b505050565b600060405180606001604052808381526020013373ffffffffffffffffffffffffffffffffffffffff16815260200182815250600f6000600d5481526020019081526020016000206000820151816000015560208201518160010160006101000a81548173ffffffffffffffffffffffffffffffffffffffff021916908373ffffffffffffffffffffffffffffffffffffffff16021790555060408201518160020155905050600d60008154809291906122f590613fab565b91905055506001600e60003373ffffffffffffffffffffffffffffffffffffffff1673ffffffffffffffffffffffffffffffffffffffff16815260200190815260200160002060006101000a81548160ff0219169083151502179055505050565b60007f80ac58cd000000000000000000000000000000000000000000000000000000007bffffffffffffffffffffffffffffffffffffffffffffffffffffffff1916827bffffffffffffffffffffffffffffffffffffffffffffffffffffffff1916148061242157507f5b5e139f000000000000000000000000000000000000000000000000000000007bffffffffffffffffffffffffffffffffffffffffffffffffffffffff1916827bffffffffffffffffffffffffffffffffffffffffffffffffffffffff1916145b806124315750612430826126fd565b5b9050919050565b612443838383612767565b505050565b505050565b600061246e8473ffffffffffffffffffffffffffffffffffffffff1661287b565b156125d7578373ffffffffffffffffffffffffffffffffffffffff1663150b7a0261249761199f565b8786866040518563ffffffff1660e01b81526004016124b994939291906138f2565b602060405180830381600087803b1580156124d357600080fd5b505af192505050801561250457506040513d601f19601f820116820180604052508101906125019190613385565b60015b612587573d8060008114612534576040519150601f19603f3d011682016040523d82523d6000602084013e612539565b606091505b5060008151141561257f576040517f08c379a0000000000000000000000000000000000000000000000000000000008152600401612576906139bb565b60405180910390fd5b805181602001fd5b63150b7a0260e01b7bffffffffffffffffffffffffffffffffffffffffffffffffffffffff1916817bffffffffffffffffffffffffffffffffffffffffffffffffffffffff1916149150506125dc565b600190505b949350505050565b606060405180602001604052806000815250905090565b606061260682611933565b612645576040517f08c379a000000000000000000000000000000000000000000000000000000000815260040161263c90613bfb565b60405180910390fd5b600061264f6125e4565b9050600081511161266f576040518060200160405280600081525061269a565b806126798461289e565b60405160200161268a9291906138b3565b6040516020818303038152906040525b915050919050565b6126ac8383612a4b565b6126b9600084848461244d565b6126f8576040517f08c379a00000000000000000000000000000000000000000000000000000000081526004016126ef906139bb565b60405180910390fd5b505050565b60007f01ffc9a7000000000000000000000000000000000000000000000000000000007bffffffffffffffffffffffffffffffffffffffffffffffffffffffff1916827bffffffffffffffffffffffffffffffffffffffffffffffffffffffff1916149050919050565b612772838383612c25565b600073ffffffffffffffffffffffffffffffffffffffff168373ffffffffffffffffffffffffffffffffffffffff1614156127b5576127b081612c2a565b6127f4565b8173ffffffffffffffffffffffffffffffffffffffff168373ffffffffffffffffffffffffffffffffffffffff16146127f3576127f28382612c73565b5b5b600073ffffffffffffffffffffffffffffffffffffffff168273ffffffffffffffffffffffffffffffffffffffff1614156128375761283281612de0565b612876565b8273ffffffffffffffffffffffffffffffffffffffff168273ffffffffffffffffffffffffffffffffffffffff1614612875576128748282612f23565b5b5b505050565b6000808273ffffffffffffffffffffffffffffffffffffffff163b119050919050565b606060008214156128e6576040518060400160405280600181526020017f30000000000000000000000000000000000000000000000000000000000000008152509050612a46565b600082905060005b6000821461291857808061290190613fab565b915050600a826129119190613df1565b91506128ee565b60008167ffffffffffffffff81111561295a577f4e487b7100000000000000000000000000000000000000000000000000000000600052604160045260246000fd5b6040519080825280601f01601f19166020018201604052801561298c5781602001600182028036833780820191505090505b5090505b60008514612a3f576001826129a59190613e22565b9150600a856129b49190613ff4565b60306129c09190613d9b565b60f81b8183815181106129fc577f4e487b7100000000000000000000000000000000000000000000000000000000600052603260045260246000fd5b60200101907effffffffffffffffffffffffffffffffffffffffffffffffffffffffffffff1916908160001a905350600a85612a389190613df1565b9450612990565b8093505050505b919050565b600073ffffffffffffffffffffffffffffffffffffffff168273ffffffffffffffffffffffffffffffffffffffff161415612abb576040517f08c379a0000000000000000000000000000000000000000000000000000000008152600401612ab290613b7b565b60405180910390fd5b612ac481611933565b15612b04576040517f08c379a0000000000000000000000000000000000000000000000000000000008152600401612afb90613a1b565b60405180910390fd5b612b1060008383612438565b6001600360008473ffffffffffffffffffffffffffffffffffffffff1673ffffffffffffffffffffffffffffffffffffffff1681526020019081526020016000206000828254612b609190613d9b565b92505081905550816002600083815260200190815260200160002060006101000a81548173ffffffffffffffffffffffffffffffffffffffff021916908373ffffffffffffffffffffffffffffffffffffffff160217905550808273ffffffffffffffffffffffffffffffffffffffff16600073ffffffffffffffffffffffffffffffffffffffff167fddf252ad1be2c89b69c2b068fc378daa952ba7f163c4a11628f55a4df523b3ef60405160405180910390a4612c2160008383612448565b5050565b505050565b6008805490506009600083815260200190815260200160002081905550600881908060018154018082558091505060019003906000526020600020016000909190919091505550565b60006001612c8084611147565b612c8a9190613e22565b9050600060076000848152602001908152602001600020549050818114612d6f576000600660008673ffffffffffffffffffffffffffffffffffffffff1673ffffffffffffffffffffffffffffffffffffffff168152602001908152602001600020600084815260200190815260200160002054905080600660008773ffffffffffffffffffffffffffffffffffffffff1673ffffffffffffffffffffffffffffffffffffffff168152602001908152602001600020600084815260200190815260200160002081905550816007600083815260200190815260200160002081905550505b6007600084815260200190815260200160002060009055600660008573ffffffffffffffffffffffffffffffffffffffff1673ffffffffffffffffffffffffffffffffffffffff16815260200190815260200160002060008381526020019081526020016000206000905550505050565b60006001600880549050612df49190613e22565b9050600060096000848152602001908152602001600020549050600060088381548110612e4a577f4e487b7100000000000000000000000000000000000000000000000000000000600052603260045260246000fd5b906000526020600020015490508060088381548110612e92577f4e487b7100000000000000000000000000000000000000000000000000000000600052603260045260246000fd5b906000526020600020018190555081600960008381526020019081526020016000208190555060096000858152602001908152602001600020600090556008805480612f07577f4e487b7100000000000000000000000000000000000000000000000000000000600052603160045260246000fd5b6001900381819060005260206000200160009055905550505050565b6000612f2e83611147565b905081600660008573ffffffffffffffffffffffffffffffffffffffff1673ffffffffffffffffffffffffffffffffffffffff168152602001908152602001600020600083815260200190815260200160002081905550806007600084815260200190815260200160002081905550505050565b604051806060016040528060008152602001600073ffffffffffffffffffffffffffffffffffffffff168152602001600081525090565b828054612fe590613f48565b90600052602060002090601f016020900481019282613007576000855561304e565b82601f1061302057805160ff191683800117855561304e565b8280016001018555821561304e579182015b8281111561304d578251825591602001919060010190613032565b5b50905061305b919061305f565b5090565b5b80821115613078576000816000905550600101613060565b5090565b600061308f61308a84613cf6565b613cd1565b9050828152602081018484840111156130a757600080fd5b6130b2848285613edc565b509392505050565b60006130cd6130c884613d27565b613cd1565b9050828152602081018484840111156130e557600080fd5b6130f0848285613edc565b509392505050565b60008135905061310781614753565b92915050565b60008135905061311c8161476a565b92915050565b60008135905061313181614781565b92915050565b60008151905061314681614781565b92915050565b600082601f83011261315d57600080fd5b813561316d84826020860161307c565b91505092915050565b600082601f83011261318757600080fd5b81356131978482602086016130ba565b91505092915050565b6000813590506131af81614798565b92915050565b6000602082840312156131c757600080fd5b60006131d5848285016130f8565b91505092915050565b600080604083850312156131f157600080fd5b60006131ff858286016130f8565b9250506020613210858286016130f8565b9150509250929050565b60008060006060848603121561322f57600080fd5b600061323d868287016130f8565b935050602061324e868287016130f8565b925050604061325f868287016131a0565b9150509250925092565b6000806000806080858703121561327f57600080fd5b600061328d878288016130f8565b945050602061329e878288016130f8565b93505060406132af878288016131a0565b925050606085013567ffffffffffffffff8111156132cc57600080fd5b6132d88782880161314c565b91505092959194509250565b600080604083850312156132f757600080fd5b6000613305858286016130f8565b92505060206133168582860161310d565b9150509250929050565b6000806040838503121561333357600080fd5b6000613341858286016130f8565b9250506020613352858286016131a0565b9150509250929050565b60006020828403121561336e57600080fd5b600061337c84828501613122565b91505092915050565b60006020828403121561339757600080fd5b60006133a584828501613137565b91505092915050565b6000602082840312156133c057600080fd5b600082013567ffffffffffffffff8111156133da57600080fd5b6133e684828501613176565b91505092915050565b60006020828403121561340157600080fd5b600061340f848285016131a0565b91505092915050565b61342181613e68565b82525050565b61343081613e56565b82525050565b61343f81613e7a565b82525050565b600061345082613d58565b61345a8185613d6e565b935061346a818560208601613eeb565b613473816140e1565b840191505092915050565b600061348982613d63565b6134938185613d7f565b93506134a3818560208601613eeb565b6134ac816140e1565b840191505092915050565b60006134c282613d63565b6134cc8185613d90565b93506134dc818560208601613eeb565b80840191505092915050565b60006134f5600f83613d7f565b9150613500826140f2565b602082019050919050565b6000613518602b83613d7f565b91506135238261411b565b604082019050919050565b600061353b603283613d7f565b91506135468261416a565b604082019050919050565b600061355e602683613d7f565b9150613569826141b9565b604082019050919050565b6000613581602583613d7f565b915061358c82614208565b604082019050919050565b60006135a4601c83613d7f565b91506135af82614257565b602082019050919050565b60006135c7601583613d7f565b91506135d282614280565b602082019050919050565b60006135ea601983613d7f565b91506135f5826142a9565b602082019050919050565b600061360d602483613d7f565b9150613618826142d2565b604082019050919050565b6000613630601983613d7f565b915061363b82614321565b602082019050919050565b6000613653602c83613d7f565b915061365e8261434a565b604082019050919050565b6000613676601a83613d7f565b915061368182614399565b602082019050919050565b6000613699603883613d7f565b91506136a4826143c2565b604082019050919050565b60006136bc602a83613d7f565b91506136c782614411565b604082019050919050565b60006136df602983613d7f565b91506136ea82614460565b604082019050919050565b6000613702602e83613d7f565b915061370d826144af565b604082019050919050565b6000613725602083613d7f565b9150613730826144fe565b602082019050919050565b6000613748603183613d7f565b915061375382614527565b604082019050919050565b600061376b602c83613d7f565b915061377682614576565b604082019050919050565b600061378e602083613d7f565b9150613799826145c5565b602082019050919050565b60006137b1602f83613d7f565b91506137bc826145ee565b604082019050919050565b60006137d4602183613d7f565b91506137df8261463d565b604082019050919050565b60006137f7603183613d7f565b91506138028261468c565b604082019050919050565b600061381a602c83613d7f565b9150613825826146db565b604082019050919050565b600061383d601983613d7f565b91506138488261472a565b602082019050919050565b6060820160008201516138696000850182613895565b50602082015161387c6020850182613418565b50604082015161388f6040850182613895565b50505050565b61389e81613ed2565b82525050565b6138ad81613ed2565b82525050565b60006138bf82856134b7565b91506138cb82846134b7565b91508190509392505050565b60006020820190506138ec6000830184613427565b92915050565b60006080820190506139076000830187613427565b6139146020830186613427565b61392160408301856138a4565b81810360608301526139338184613445565b905095945050505050565b60006020820190506139536000830184613436565b92915050565b60006020820190508181036000830152613973818461347e565b905092915050565b60006020820190508181036000830152613994816134e8565b9050919050565b600060208201905081810360008301526139b48161350b565b9050919050565b600060208201905081810360008301526139d48161352e565b9050919050565b600060208201905081810360008301526139f481613551565b9050919050565b60006020820190508181036000830152613a1481613574565b9050919050565b60006020820190508181036000830152613a3481613597565b9050919050565b60006020820190508181036000830152613a54816135ba565b9050919050565b60006020820190508181036000830152613a74816135dd565b9050919050565b60006020820190508181036000830152613a9481613600565b9050919050565b60006020820190508181036000830152613ab481613623565b9050919050565b60006020820190508181036000830152613ad481613646565b9050919050565b60006020820190508181036000830152613af481613669565b9050919050565b60006020820190508181036000830152613b148161368c565b9050919050565b60006020820190508181036000830152613b34816136af565b9050919050565b60006020820190508181036000830152613b54816136d2565b9050919050565b60006020820190508181036000830152613b74816136f5565b9050919050565b60006020820190508181036000830152613b9481613718565b9050919050565b60006020820190508181036000830152613bb48161373b565b9050919050565b60006020820190508181036000830152613bd48161375e565b9050919050565b60006020820190508181036000830152613bf481613781565b9050919050565b60006020820190508181036000830152613c14816137a4565b9050919050565b60006020820190508181036000830152613c34816137c7565b9050919050565b60006020820190508181036000830152613c54816137ea565b9050919050565b60006020820190508181036000830152613c748161380d565b9050919050565b60006020820190508181036000830152613c9481613830565b9050919050565b6000606082019050613cb06000830184613853565b92915050565b6000602082019050613ccb60008301846138a4565b92915050565b6000613cdb613cec565b9050613ce78282613f7a565b919050565b6000604051905090565b600067ffffffffffffffff821115613d1157613d106140b2565b5b613d1a826140e1565b9050602081019050919050565b600067ffffffffffffffff821115613d4257613d416140b2565b5b613d4b826140e1565b9050602081019050919050565b600081519050919050565b600081519050919050565b600082825260208201905092915050565b600082825260208201905092915050565b600081905092915050565b6000613da682613ed2565b9150613db183613ed2565b9250827fffffffffffffffffffffffffffffffffffffffffffffffffffffffffffffffff03821115613de657613de5614025565b5b828201905092915050565b6000613dfc82613ed2565b9150613e0783613ed2565b925082613e1757613e16614054565b5b828204905092915050565b6000613e2d82613ed2565b9150613e3883613ed2565b925082821015613e4b57613e4a614025565b5b828203905092915050565b6000613e6182613eb2565b9050919050565b6000613e7382613eb2565b9050919050565b60008115159050919050565b60007fffffffff0000000000000000000000000000000000000000000000000000000082169050919050565b600073ffffffffffffffffffffffffffffffffffffffff82169050919050565b6000819050919050565b82818337600083830152505050565b60005b83811015613f09578082015181840152602081019050613eee565b83811115613f18576000848401525b50505050565b6000613f2982613ed2565b91506000821415613f3d57613f3c614025565b5b600182039050919050565b60006002820490506001821680613f6057607f821691505b60208210811415613f7457613f73614083565b5b50919050565b613f83826140e1565b810181811067ffffffffffffffff82111715613fa257613fa16140b2565b5b80604052505050565b6000613fb682613ed2565b91507fffffffffffffffffffffffffffffffffffffffffffffffffffffffffffffffff821415613fe957613fe8614025565b5b600182019050919050565b6000613fff82613ed2565b915061400a83613ed2565b92508261401a57614019614054565b5b828206905092915050565b7f4e487b7100000000000000000000000000000000000000000000000000000000600052601160045260246000fd5b7f4e487b7100000000000000000000000000000000000000000000000000000000600052601260045260246000fd5b7f4e487b7100000000000000000000000000000000000000000000000000000000600052602260045260246000fd5b7f4e487b7100000000000000000000000000000000000000000000000000000000600052604160045260246000fd5b6000601f19601f8301169050919050565b7f496e76616c696420616464726573730000000000000000000000000000000000600082015250565b7f455243373231456e756d657261626c653a206f776e657220696e646578206f7560008201527f74206f6620626f756e6473000000000000000000000000000000000000000000602082015250565b7f4552433732313a207472616e7366657220746f206e6f6e20455243373231526560008201527f63656976657220696d706c656d656e7465720000000000000000000000000000602082015250565b7f4f776e61626c653a206e6577206f776e657220697320746865207a65726f206160008201527f6464726573730000000000000000000000000000000000000000000000000000602082015250565b7f4552433732313a207472616e736665722066726f6d20696e636f72726563742060008201527f6f776e6572000000000000000000000000000000000000000000000000000000602082015250565b7f4552433732313a20746f6b656e20616c7265616479206d696e74656400000000600082015250565b7f63616e27742072656d6f76652074686973206e66740000000000000000000000600082015250565b7f796f752063616e7420757067726164652074686973206e667400000000000000600082015250565b7f4552433732313a207472616e7366657220746f20746865207a65726f2061646460008201527f7265737300000000000000000000000000000000000000000000000000000000602082015250565b7f4552433732313a20617070726f766520746f2063616c6c657200000000000000600082015250565b7f4552433732313a206f70657261746f7220717565727920666f72206e6f6e657860008201527f697374656e7420746f6b656e0000000000000000000000000000000000000000602082015250565b7f63616e2774207377616c6c6f7720796f7572206f776e206e6674000000000000600082015250565b7f4552433732313a20617070726f76652063616c6c6572206973206e6f74206f7760008201527f6e6572206e6f7220617070726f76656420666f7220616c6c0000000000000000602082015250565b7f4552433732313a2062616c616e636520717565727920666f7220746865207a6560008201527f726f206164647265737300000000000000000000000000000000000000000000602082015250565b7f4552433732313a206f776e657220717565727920666f72206e6f6e657869737460008201527f656e7420746f6b656e0000000000000000000000000000000000000000000000602082015250565b7f45524337323155524953746f726167653a2055524920736574206f66206e6f6e60008201527f6578697374656e7420746f6b656e000000000000000000000000000000000000602082015250565b7f4552433732313a206d696e7420746f20746865207a65726f2061646472657373600082015250565b7f45524337323155524953746f726167653a2055524920717565727920666f722060008201527f6e6f6e6578697374656e7420746f6b656e000000000000000000000000000000602082015250565b7f4552433732313a20617070726f76656420717565727920666f72206e6f6e657860008201527f697374656e7420746f6b656e0000000000000000000000000000000000000000602082015250565b7f4f776e61626c653a2063616c6c6572206973206e6f7420746865206f776e6572600082015250565b7f4552433732314d657461646174613a2055524920717565727920666f72206e6f60008201527f6e6578697374656e7420746f6b656e0000000000000000000000000000000000602082015250565b7f4552433732313a20617070726f76616c20746f2063757272656e74206f776e6560008201527f7200000000000000000000000000000000000000000000000000000000000000602082015250565b7f4552433732313a207472616e736665722063616c6c6572206973206e6f74206f60008201527f776e6572206e6f7220617070726f766564000000000000000000000000000000602082015250565b7f455243373231456e756d657261626c653a20676c6f62616c20696e646578206f60008201527f7574206f6620626f756e64730000000000000000000000000000000000000000602082015250565b7f596f752068617665206c6573732076616c756520706f696e7400000000000000600082015250565b61475c81613e56565b811461476757600080fd5b50565b61477381613e7a565b811461477e57600080fd5b50565b61478a81613e86565b811461479557600080fd5b50565b6147a181613ed2565b81146147ac57600080fd5b5056fea2646970667358221220df8b269f125f708d5b118c8eee23312510586cf0caef256ba44a2b79d12cdbba64736f6c63430008040033",
  "linkReferences": {},
  "deployedLinkReferences": {}
}