{
  "_format": "hh-sol-artifact-1",
  "contractName": "MyNFT",
  "sourceName": "contracts/MyNFT.sol",
  "abi": [
    {
      "inputs": [],
      "stateMutability": "nonpayable",
      "type": "constructor"
    },
    {
      "anonymous": false,
      "inputs": [
        {
          "indexed": true,
          "internalType": "address",
          "name": "owner",
          "type": "address"
        },
        {
          "indexed": true,
          "internalType": "address",
          "name": "approved",
          "type": "address"
        },
        {
          "indexed": true,
          "internalType": "uint256",
          "name": "tokenId",
          "type": "uint256"
        }
      ],
      "name": "Approval",
      "type": "event"
    },
    {
      "anonymous": false,
      "inputs": [
        {
          "indexed": true,
          "internalType": "address",
          "name": "owner",
          "type": "address"
        },
        {
          "indexed": true,
          "internalType": "address",
          "name": "operator",
          "type": "address"
        },
        {
          "indexed": false,
          "internalType": "bool",
          "name": "approved",
          "type": "bool"
        }
      ],
      "name": "ApprovalForAll",
      "type": "event"
    },
    {
      "anonymous": false,
      "inputs": [
        {
          "indexed": true,
          "internalType": "address",
          "name": "previousOwner",
          "type": "address"
        },
        {
          "indexed": true,
          "internalType": "address",
          "name": "newOwner",
          "type": "address"
        }
      ],
      "name": "OwnershipTransferred",
      "type": "event"
    },
    {
      "anonymous": false,
      "inputs": [
        {
          "indexed": true,
          "internalType": "address",
          "name": "from",
          "type": "address"
        },
        {
          "indexed": true,
          "internalType": "address",
          "name": "to",
          "type": "address"
        },
        {
          "indexed": true,
          "internalType": "uint256",
          "name": "tokenId",
          "type": "uint256"
        }
      ],
      "name": "Transfer",
      "type": "event"
    },
    {
      "inputs": [
        {
          "internalType": "address",
          "name": "to",
          "type": "address"
        },
        {
          "internalType": "uint256",
          "name": "tokenId",
          "type": "uint256"
        }
      ],
      "name": "approve",
      "outputs": [],
      "stateMutability": "nonpayable",
      "type": "function"
    },
    {
      "inputs": [
        {
          "internalType": "address",
          "name": "owner",
          "type": "address"
        }
      ],
      "name": "balanceOf",
      "outputs": [
        {
          "internalType": "uint256",
          "name": "",
          "type": "uint256"
        }
      ],
      "stateMutability": "view",
      "type": "function"
    },
    {
      "inputs": [
        {
          "internalType": "address",
          "name": "_address",
          "type": "address"
        },
        {
          "internalType": "uint256",
          "name": "_index",
          "type": "uint256"
        }
      ],
      "name": "canSwallowNFT",
      "outputs": [
        {
          "internalType": "bool",
          "name": "",
          "type": "bool"
        }
      ],
      "stateMutability": "view",
      "type": "function"
    },
    {
      "inputs": [
        {
          "internalType": "uint256",
          "name": "_index",
          "type": "uint256"
        }
      ],
      "name": "getAllNFTS",
      "outputs": [
        {
          "components": [
            {
              "internalType": "uint256",
              "name": "tokenId",
              "type": "uint256"
            },
            {
              "internalType": "address payable",
              "name": "owner",
              "type": "address"
            },
            {
              "internalType": "uint256",
              "name": "powerValue",
              "type": "uint256"
            },
            {
              "internalType": "string",
              "name": "name",
              "type": "string"
            }
          ],
          "internalType": "struct MyNFT.NFT",
          "name": "",
          "type": "tuple"
        }
      ],
      "stateMutability": "view",
      "type": "function"
    },
    {
      "inputs": [
        {
          "internalType": "uint256",
          "name": "tokenId",
          "type": "uint256"
        }
      ],
      "name": "getApproved",
      "outputs": [
        {
          "internalType": "address",
          "name": "",
          "type": "address"
        }
      ],
      "stateMutability": "view",
      "type": "function"
    },
    {
      "inputs": [],
      "name": "getNFTlength",
      "outputs": [
        {
          "internalType": "uint256",
          "name": "",
          "type": "uint256"
        }
      ],
      "stateMutability": "view",
      "type": "function"
    },
    {
      "inputs": [
        {
          "internalType": "address",
          "name": "_address",
          "type": "address"
        }
      ],
      "name": "hasMinted",
      "outputs": [
        {
          "internalType": "bool",
          "name": "",
          "type": "bool"
        }
      ],
      "stateMutability": "view",
      "type": "function"
    },
    {
      "inputs": [
        {
          "internalType": "address",
          "name": "owner",
          "type": "address"
        },
        {
          "internalType": "address",
          "name": "operator",
          "type": "address"
        }
      ],
      "name": "isApprovedForAll",
      "outputs": [
        {
          "internalType": "bool",
          "name": "",
          "type": "bool"
        }
      ],
      "stateMutability": "view",
      "type": "function"
    },
    {
      "inputs": [
        {
          "internalType": "string",
          "name": "name",
          "type": "string"
        }
      ],
      "name": "mint",
      "outputs": [],
      "stateMutability": "payable",
      "type": "function"
    },
    {
      "inputs": [
        {
          "internalType": "address",
          "name": "",
          "type": "address"
        }
      ],
      "name": "minters",
      "outputs": [
        {
          "internalType": "bool",
          "name": "",
          "type": "bool"
        }
      ],
      "stateMutability": "view",
      "type": "function"
    },
    {
      "inputs": [],
      "name": "name",
      "outputs": [
        {
          "internalType": "string",
          "name": "",
          "type": "string"
        }
      ],
      "stateMutability": "view",
      "type": "function"
    },
    {
      "inputs": [],
      "name": "owner",
      "outputs": [
        {
          "internalType": "address",
          "name": "",
          "type": "address"
        }
      ],
      "stateMutability": "view",
      "type": "function"
    },
    {
      "inputs": [
        {
          "internalType": "uint256",
          "name": "tokenId",
          "type": "uint256"
        }
      ],
      "name": "ownerOf",
      "outputs": [
        {
          "internalType": "address",
          "name": "",
          "type": "address"
        }
      ],
      "stateMutability": "view",
      "type": "function"
    },
    {
      "inputs": [
        {
          "internalType": "address",
          "name": "",
          "type": "address"
        }
      ],
      "name": "playerpowervalue",
      "outputs": [
        {
          "internalType": "uint256",
          "name": "",
          "type": "uint256"
        }
      ],
      "stateMutability": "view",
      "type": "function"
    },
    {
      "inputs": [
        {
          "internalType": "uint256",
          "name": "_index",
          "type": "uint256"
        }
      ],
      "name": "remove",
      "outputs": [],
      "stateMutability": "nonpayable",
      "type": "function"
    },
    {
      "inputs": [],
      "name": "renounceOwnership",
      "outputs": [],
      "stateMutability": "nonpayable",
      "type": "function"
    },
    {
      "inputs": [
        {
          "internalType": "address",
          "name": "from",
          "type": "address"
        },
        {
          "internalType": "address",
          "name": "to",
          "type": "address"
        },
        {
          "internalType": "uint256",
          "name": "tokenId",
          "type": "uint256"
        }
      ],
      "name": "safeTransferFrom",
      "outputs": [],
      "stateMutability": "nonpayable",
      "type": "function"
    },
    {
      "inputs": [
        {
          "internalType": "address",
          "name": "from",
          "type": "address"
        },
        {
          "internalType": "address",
          "name": "to",
          "type": "address"
        },
        {
          "internalType": "uint256",
          "name": "tokenId",
          "type": "uint256"
        },
        {
          "internalType": "bytes",
          "name": "_data",
          "type": "bytes"
        }
      ],
      "name": "safeTransferFrom",
      "outputs": [],
      "stateMutability": "nonpayable",
      "type": "function"
    },
    {
      "inputs": [
        {
          "internalType": "address",
          "name": "operator",
          "type": "address"
        },
        {
          "internalType": "bool",
          "name": "approved",
          "type": "bool"
        }
      ],
      "name": "setApprovalForAll",
      "outputs": [],
      "stateMutability": "nonpayable",
      "type": "function"
    },
    {
      "inputs": [
        {
          "internalType": "bytes4",
          "name": "interfaceId",
          "type": "bytes4"
        }
      ],
      "name": "supportsInterface",
      "outputs": [
        {
          "internalType": "bool",
          "name": "",
          "type": "bool"
        }
      ],
      "stateMutability": "view",
      "type": "function"
    },
    {
      "inputs": [
        {
          "internalType": "uint256",
          "name": "_index",
          "type": "uint256"
        }
      ],
      "name": "swallowNFT",
      "outputs": [],
      "stateMutability": "nonpayable",
      "type": "function"
    },
    {
      "inputs": [],
      "name": "symbol",
      "outputs": [
        {
          "internalType": "string",
          "name": "",
          "type": "string"
        }
      ],
      "stateMutability": "view",
      "type": "function"
    },
    {
      "inputs": [
        {
          "internalType": "uint256",
          "name": "index",
          "type": "uint256"
        }
      ],
      "name": "tokenByIndex",
      "outputs": [
        {
          "internalType": "uint256",
          "name": "",
          "type": "uint256"
        }
      ],
      "stateMutability": "view",
      "type": "function"
    },
    {
      "inputs": [
        {
          "internalType": "address",
          "name": "owner",
          "type": "address"
        },
        {
          "internalType": "uint256",
          "name": "index",
          "type": "uint256"
        }
      ],
      "name": "tokenOfOwnerByIndex",
      "outputs": [
        {
          "internalType": "uint256",
          "name": "",
          "type": "uint256"
        }
      ],
      "stateMutability": "view",
      "type": "function"
    },
    {
      "inputs": [
        {
          "internalType": "uint256",
          "name": "tokenId",
          "type": "uint256"
        }
      ],
      "name": "tokenURI",
      "outputs": [
        {
          "internalType": "string",
          "name": "",
          "type": "string"
        }
      ],
      "stateMutability": "view",
      "type": "function"
    },
    {
      "inputs": [],
      "name": "totalSupply",
      "outputs": [
        {
          "internalType": "uint256",
          "name": "",
          "type": "uint256"
        }
      ],
      "stateMutability": "view",
      "type": "function"
    },
    {
      "inputs": [
        {
          "internalType": "address",
          "name": "from",
          "type": "address"
        },
        {
          "internalType": "address",
          "name": "to",
          "type": "address"
        },
        {
          "internalType": "uint256",
          "name": "tokenId",
          "type": "uint256"
        }
      ],
      "name": "transferFrom",
      "outputs": [],
      "stateMutability": "nonpayable",
      "type": "function"
    },
    {
      "inputs": [
        {
          "internalType": "address",
          "name": "newOwner",
          "type": "address"
        }
      ],
      "name": "transferOwnership",
      "outputs": [],
      "stateMutability": "nonpayable",
      "type": "function"
    },
    {
      "inputs": [
        {
          "internalType": "uint256",
          "name": "_index",
          "type": "uint256"
        }
      ],
      "name": "upgradeNFT",
      "outputs": [],
      "stateMutability": "payable",
      "type": "function"
    }
  ],
  "bytecode": "0x60806040526000600d553480156200001657600080fd5b506040518060400160405280600781526020017f47414d454e4654000000000000000000000000000000000000000000000000008152506040518060400160405280600481526020017f474e46540000000000000000000000000000000000000000000000000000000081525081600090805190602001906200009b929190620001ab565b508060019080519060200190620000b4929190620001ab565b505050620000d7620000cb620000dd60201b60201c565b620000e560201b60201c565b620002c0565b600033905090565b6000600b60009054906101000a900473ffffffffffffffffffffffffffffffffffffffff16905081600b60006101000a81548173ffffffffffffffffffffffffffffffffffffffff021916908373ffffffffffffffffffffffffffffffffffffffff1602179055508173ffffffffffffffffffffffffffffffffffffffff168173ffffffffffffffffffffffffffffffffffffffff167f8be0079c531659141344cd1fd0a4f28419497f9722a3daafe3b4186f6b6457e060405160405180910390a35050565b828054620001b9906200025b565b90600052602060002090601f016020900481019282620001dd576000855562000229565b82601f10620001f857805160ff191683800117855562000229565b8280016001018555821562000229579182015b82811115620002285782518255916020019190600101906200020b565b5b5090506200023891906200023c565b5090565b5b80821115620002575760008160009055506001016200023d565b5090565b600060028204905060018216806200027457607f821691505b602082108114156200028b576200028a62000291565b5b50919050565b7f4e487b7100000000000000000000000000000000000000000000000000000000600052602260045260246000fd5b614a0a80620002d06000396000f3fe6080604052600436106101c25760003560e01c8063715018a6116100f7578063d41daa2b11610095578063f46eccc411610064578063f46eccc41461065a578063f648f43914610697578063ffb58973146106d4578063ffdbac4314610711576101c2565b8063d41daa2b146105ad578063d85d3d27146105d8578063e985e9c5146105f4578063f2fde38b14610631576101c2565b806395d89b41116100d157806395d89b41146104f3578063a22cb4651461051e578063b88d4fde14610547578063c87b56dd14610570576101c2565b8063715018a6146104955780638da5cb5b146104ac57806390690c9a146104d7576101c2565b80632f745c59116101645780634cc822151161013e5780634cc82215146103b55780634f6ccce7146103de5780636352211e1461041b57806370a0823114610458576101c2565b80632f745c591461031257806338e21cce1461034f57806342842e0e1461038c576101c2565b8063095ea7b3116101a0578063095ea7b31461026c57806314dfa3411461029557806318160ddd146102be57806323b872dd146102e9576101c2565b806301ffc9a7146101c757806306fdde0314610204578063081812fc1461022f575b600080fd5b3480156101d357600080fd5b506101ee60048036038101906101e991906135a1565b61074e565b6040516101fb9190613bba565b60405180910390f35b34801561021057600080fd5b50610219610760565b6040516102269190613bd5565b60405180910390f35b34801561023b57600080fd5b5061025660048036038101906102519190613634565b6107f2565b6040516102639190613b53565b60405180910390f35b34801561027857600080fd5b50610293600480360381019061028e9190613565565b610877565b005b3480156102a157600080fd5b506102bc60048036038101906102b79190613634565b61098f565b005b3480156102ca57600080fd5b506102d3610d7f565b6040516102e09190613f19565b60405180910390f35b3480156102f557600080fd5b50610310600480360381019061030b919061345f565b610d8c565b005b34801561031e57600080fd5b5061033960048036038101906103349190613565565b610dec565b6040516103469190613f19565b60405180910390f35b34801561035b57600080fd5b50610376600480360381019061037191906133fa565b610e91565b6040516103839190613bba565b60405180910390f35b34801561039857600080fd5b506103b360048036038101906103ae919061345f565b610eff565b005b3480156103c157600080fd5b506103dc60048036038101906103d79190613634565b610f1f565b005b3480156103ea57600080fd5b5061040560048036038101906104009190613634565b61113c565b6040516104129190613f19565b60405180910390f35b34801561042757600080fd5b50610442600480360381019061043d9190613634565b6111d3565b60405161044f9190613b53565b60405180910390f35b34801561046457600080fd5b5061047f600480360381019061047a91906133fa565b611285565b60405161048c9190613f19565b60405180910390f35b3480156104a157600080fd5b506104aa61133d565b005b3480156104b857600080fd5b506104c16113c5565b6040516104ce9190613b53565b60405180910390f35b6104f160048036038101906104ec9190613634565b6113ef565b005b3480156104ff57600080fd5b50610508611565565b6040516105159190613bd5565b60405180910390f35b34801561052a57600080fd5b5061054560048036038101906105409190613529565b6115f7565b005b34801561055357600080fd5b5061056e600480360381019061056991906134ae565b61160d565b005b34801561057c57600080fd5b5061059760048036038101906105929190613634565b61166f565b6040516105a49190613bd5565b60405180910390f35b3480156105b957600080fd5b506105c2611681565b6040516105cf9190613f19565b60405180910390f35b6105f260048036038101906105ed91906135f3565b61168b565b005b34801561060057600080fd5b5061061b60048036038101906106169190613423565b6116bb565b6040516106289190613bba565b60405180910390f35b34801561063d57600080fd5b50610658600480360381019061065391906133fa565b61174f565b005b34801561066657600080fd5b50610681600480360381019061067c91906133fa565b611847565b60405161068e9190613bba565b60405180910390f35b3480156106a357600080fd5b506106be60048036038101906106b99190613634565b611867565b6040516106cb9190613ef7565b60405180910390f35b3480156106e057600080fd5b506106fb60048036038101906106f691906133fa565b611990565b6040516107089190613f19565b60405180910390f35b34801561071d57600080fd5b5061073860048036038101906107339190613565565b6119a8565b6040516107459190613bba565b60405180910390f35b600061075982611a7a565b9050919050565b60606000805461076f906141bc565b80601f016020809104026020016040519081016040528092919081815260200182805461079b906141bc565b80156107e85780601f106107bd576101008083540402835291602001916107e8565b820191906000526020600020905b8154815290600101906020018083116107cb57829003601f168201915b5050505050905090565b60006107fd82611af4565b61083c576040517f08c379a000000000000000000000000000000000000000000000000000000000815260040161083390613e17565b60405180910390fd5b6004600083815260200190815260200160002060009054906101000a900473ffffffffffffffffffffffffffffffffffffffff169050919050565b6000610882826111d3565b90508073ffffffffffffffffffffffffffffffffffffffff168373ffffffffffffffffffffffffffffffffffffffff1614156108f3576040517f08c379a00000000000000000000000000000000000000000000000000000000081526004016108ea90613e77565b60405180910390fd5b8073ffffffffffffffffffffffffffffffffffffffff16610912611b60565b73ffffffffffffffffffffffffffffffffffffffff16148061094157506109408161093b611b60565b6116bb565b5b610980576040517f08c379a000000000000000000000000000000000000000000000000000000000815260040161097790613d77565b60405180910390fd5b61098a8383611b68565b505050565b33600e60008273ffffffffffffffffffffffffffffffffffffffff1673ffffffffffffffffffffffffffffffffffffffff16815260200190815260200160002060009054906101000a900460ff16610a1c576040517f08c379a0000000000000000000000000000000000000000000000000000000008152600401610a1390613bf7565b60405180910390fd5b33826000600f600083815260200190815260200160002060010160009054906101000a900473ffffffffffffffffffffffffffffffffffffffff169050601060008273ffffffffffffffffffffffffffffffffffffffff1673ffffffffffffffffffffffffffffffffffffffff16815260200190815260200160002054601060008573ffffffffffffffffffffffffffffffffffffffff1673ffffffffffffffffffffffffffffffffffffffff1681526020019081526020016000205411610b19576040517f08c379a0000000000000000000000000000000000000000000000000000000008152600401610b1090613ed7565b60405180910390fd5b600f600086815260200190815260200160002060010160009054906101000a900473ffffffffffffffffffffffffffffffffffffffff1673ffffffffffffffffffffffffffffffffffffffff163373ffffffffffffffffffffffffffffffffffffffff161415610bbe576040517f08c379a0000000000000000000000000000000000000000000000000000000008152600401610bb590613d57565b60405180910390fd5b610c15600f600087815260200190815260200160002060010160009054906101000a900473ffffffffffffffffffffffffffffffffffffffff1633600f600089815260200190815260200160002060000154611c21565b600f60008681526020019081526020016000206002015460106000600f600089815260200190815260200160002060010160009054906101000a900473ffffffffffffffffffffffffffffffffffffffff1673ffffffffffffffffffffffffffffffffffffffff1673ffffffffffffffffffffffffffffffffffffffff1681526020019081526020016000206000828254610cb09190614096565b92505081905550600f600086815260200190815260200160002060020154601060003373ffffffffffffffffffffffffffffffffffffffff1673ffffffffffffffffffffffffffffffffffffffff1681526020019081526020016000206000828254610d1c919061400f565b9250508190555033600f600087815260200190815260200160002060010160006101000a81548173ffffffffffffffffffffffffffffffffffffffff021916908373ffffffffffffffffffffffffffffffffffffffff1602179055505050505050565b6000600880549050905090565b610d9d610d97611b60565b82611e88565b610ddc576040517f08c379a0000000000000000000000000000000000000000000000000000000008152600401610dd390613e97565b60405180910390fd5b610de7838383611c21565b505050565b6000610df783611285565b8210610e38576040517f08c379a0000000000000000000000000000000000000000000000000000000008152600401610e2f90613c17565b60405180910390fd5b600660008473ffffffffffffffffffffffffffffffffffffffff1673ffffffffffffffffffffffffffffffffffffffff168152602001908152602001600020600083815260200190815260200160002054905092915050565b600060011515600e60008473ffffffffffffffffffffffffffffffffffffffff1673ffffffffffffffffffffffffffffffffffffffff16815260200190815260200160002060009054906101000a900460ff1615151415610ef55760019050610efa565b600090505b919050565b610f1a8383836040518060200160405280600081525061160d565b505050565b600f600082815260200190815260200160002060010160009054906101000a900473ffffffffffffffffffffffffffffffffffffffff1673ffffffffffffffffffffffffffffffffffffffff163373ffffffffffffffffffffffffffffffffffffffff1614610fc3576040517f08c379a0000000000000000000000000000000000000000000000000000000008152600401610fba90613cb7565b60405180910390fd5b600f60006001600d54610fd69190614096565b8152602001908152602001600020600f6000838152602001908152602001600020600082015481600001556001820160009054906101000a900473ffffffffffffffffffffffffffffffffffffffff168160010160006101000a81548173ffffffffffffffffffffffffffffffffffffffff021916908373ffffffffffffffffffffffffffffffffffffffff160217905550600282015481600201556003820181600301908054611086906141bc565b611091929190613113565b50905050600f60006001600d546110a89190614096565b81526020019081526020016000206000808201600090556001820160006101000a81549073ffffffffffffffffffffffffffffffffffffffff021916905560028201600090556003820160006110fe91906131a0565b5050600d600081548092919061111390614192565b91905055506111393033600f600085815260200190815260200160002060000154611c21565b50565b6000611146610d7f565b8210611187576040517f08c379a000000000000000000000000000000000000000000000000000000000815260040161117e90613eb7565b60405180910390fd5b600882815481106111c1577f4e487b7100000000000000000000000000000000000000000000000000000000600052603260045260246000fd5b90600052602060002001549050919050565b6000806002600084815260200190815260200160002060009054906101000a900473ffffffffffffffffffffffffffffffffffffffff169050600073ffffffffffffffffffffffffffffffffffffffff168173ffffffffffffffffffffffffffffffffffffffff16141561127c576040517f08c379a000000000000000000000000000000000000000000000000000000000815260040161127390613db7565b60405180910390fd5b80915050919050565b60008073ffffffffffffffffffffffffffffffffffffffff168273ffffffffffffffffffffffffffffffffffffffff1614156112f6576040517f08c379a00000000000000000000000000000000000000000000000000000000081526004016112ed90613d97565b60405180910390fd5b600360008373ffffffffffffffffffffffffffffffffffffffff1673ffffffffffffffffffffffffffffffffffffffff168152602001908152602001600020549050919050565b611345611b60565b73ffffffffffffffffffffffffffffffffffffffff166113636113c5565b73ffffffffffffffffffffffffffffffffffffffff16146113b9576040517f08c379a00000000000000000000000000000000000000000000000000000000081526004016113b090613e37565b60405180910390fd5b6113c36000611f66565b565b6000600b60009054906101000a900473ffffffffffffffffffffffffffffffffffffffff16905090565b600f600082815260200190815260200160002060010160009054906101000a900473ffffffffffffffffffffffffffffffffffffffff1673ffffffffffffffffffffffffffffffffffffffff163373ffffffffffffffffffffffffffffffffffffffff1614611493576040517f08c379a000000000000000000000000000000000000000000000000000000000815260040161148a90613cd7565b60405180910390fd5b61149b6113c5565b73ffffffffffffffffffffffffffffffffffffffff166108fc349081150290604051600060405180830381858888f193505050501580156114e0573d6000803e3d6000fd5b50600f600082815260200190815260200160002060020160008154809291906115089061421f565b9190505550601060003373ffffffffffffffffffffffffffffffffffffffff1673ffffffffffffffffffffffffffffffffffffffff168152602001908152602001600020600081548092919061155d9061421f565b919050555050565b606060018054611574906141bc565b80601f01602080910402602001604051908101604052809291908181526020018280546115a0906141bc565b80156115ed5780601f106115c2576101008083540402835291602001916115ed565b820191906000526020600020905b8154815290600101906020018083116115d057829003601f168201915b5050505050905090565b611609611602611b60565b838361202c565b5050565b61161e611618611b60565b83611e88565b61165d576040517f08c379a000000000000000000000000000000000000000000000000000000000815260040161165490613e97565b60405180910390fd5b61166984848484612199565b50505050565b606061167a826121f5565b9050919050565b6000600d54905090565b6000611697600c612347565b90506116a3600c612355565b6116ad338261236b565b6116b78183612389565b5050565b6000600560008473ffffffffffffffffffffffffffffffffffffffff1673ffffffffffffffffffffffffffffffffffffffff16815260200190815260200160002060008373ffffffffffffffffffffffffffffffffffffffff1673ffffffffffffffffffffffffffffffffffffffff16815260200190815260200160002060009054906101000a900460ff16905092915050565b611757611b60565b73ffffffffffffffffffffffffffffffffffffffff166117756113c5565b73ffffffffffffffffffffffffffffffffffffffff16146117cb576040517f08c379a00000000000000000000000000000000000000000000000000000000081526004016117c290613e37565b60405180910390fd5b600073ffffffffffffffffffffffffffffffffffffffff168173ffffffffffffffffffffffffffffffffffffffff16141561183b576040517f08c379a000000000000000000000000000000000000000000000000000000000815260040161183290613c57565b60405180910390fd5b61184481611f66565b50565b600e6020528060005260406000206000915054906101000a900460ff1681565b61186f6131e0565b600f6000838152602001908152602001600020604051806080016040529081600082015481526020016001820160009054906101000a900473ffffffffffffffffffffffffffffffffffffffff1673ffffffffffffffffffffffffffffffffffffffff1673ffffffffffffffffffffffffffffffffffffffff16815260200160028201548152602001600382018054611907906141bc565b80601f0160208091040260200160405190810160405280929190818152602001828054611933906141bc565b80156119805780601f1061195557610100808354040283529160200191611980565b820191906000526020600020905b81548152906001019060200180831161196357829003601f168201915b5050505050815250509050919050565b60106020528060005260406000206000915090505481565b600060106000600f600085815260200190815260200160002060010160009054906101000a900473ffffffffffffffffffffffffffffffffffffffff1673ffffffffffffffffffffffffffffffffffffffff1673ffffffffffffffffffffffffffffffffffffffff16815260200190815260200160002054601060008573ffffffffffffffffffffffffffffffffffffffff1673ffffffffffffffffffffffffffffffffffffffff168152602001908152602001600020541115611a6f5760019050611a74565b600090505b92915050565b60007f780e9d63000000000000000000000000000000000000000000000000000000007bffffffffffffffffffffffffffffffffffffffffffffffffffffffff1916827bffffffffffffffffffffffffffffffffffffffffffffffffffffffff19161480611aed5750611aec826124c7565b5b9050919050565b60008073ffffffffffffffffffffffffffffffffffffffff166002600084815260200190815260200160002060009054906101000a900473ffffffffffffffffffffffffffffffffffffffff1673ffffffffffffffffffffffffffffffffffffffff1614159050919050565b600033905090565b816004600083815260200190815260200160002060006101000a81548173ffffffffffffffffffffffffffffffffffffffff021916908373ffffffffffffffffffffffffffffffffffffffff160217905550808273ffffffffffffffffffffffffffffffffffffffff16611bdb836111d3565b73ffffffffffffffffffffffffffffffffffffffff167f8c5be1e5ebec7d5bd14f71427d1e84f3dd0314c0f7b2291e5b200ac8c7c3b92560405160405180910390a45050565b8273ffffffffffffffffffffffffffffffffffffffff16611c41826111d3565b73ffffffffffffffffffffffffffffffffffffffff1614611c97576040517f08c379a0000000000000000000000000000000000000000000000000000000008152600401611c8e90613c77565b60405180910390fd5b600073ffffffffffffffffffffffffffffffffffffffff168273ffffffffffffffffffffffffffffffffffffffff161415611d07576040517f08c379a0000000000000000000000000000000000000000000000000000000008152600401611cfe90613cf7565b60405180910390fd5b611d128383836125a9565b611d1d600082611b68565b6001600360008573ffffffffffffffffffffffffffffffffffffffff1673ffffffffffffffffffffffffffffffffffffffff1681526020019081526020016000206000828254611d6d9190614096565b925050819055506001600360008473ffffffffffffffffffffffffffffffffffffffff1673ffffffffffffffffffffffffffffffffffffffff1681526020019081526020016000206000828254611dc4919061400f565b92505081905550816002600083815260200190815260200160002060006101000a81548173ffffffffffffffffffffffffffffffffffffffff021916908373ffffffffffffffffffffffffffffffffffffffff160217905550808273ffffffffffffffffffffffffffffffffffffffff168473ffffffffffffffffffffffffffffffffffffffff167fddf252ad1be2c89b69c2b068fc378daa952ba7f163c4a11628f55a4df523b3ef60405160405180910390a4611e838383836125b9565b505050565b6000611e9382611af4565b611ed2576040517f08c379a0000000000000000000000000000000000000000000000000000000008152600401611ec990613d37565b60405180910390fd5b6000611edd836111d3565b90508073ffffffffffffffffffffffffffffffffffffffff168473ffffffffffffffffffffffffffffffffffffffff161480611f4c57508373ffffffffffffffffffffffffffffffffffffffff16611f34846107f2565b73ffffffffffffffffffffffffffffffffffffffff16145b80611f5d5750611f5c81856116bb565b5b91505092915050565b6000600b60009054906101000a900473ffffffffffffffffffffffffffffffffffffffff16905081600b60006101000a81548173ffffffffffffffffffffffffffffffffffffffff021916908373ffffffffffffffffffffffffffffffffffffffff1602179055508173ffffffffffffffffffffffffffffffffffffffff168173ffffffffffffffffffffffffffffffffffffffff167f8be0079c531659141344cd1fd0a4f28419497f9722a3daafe3b4186f6b6457e060405160405180910390a35050565b8173ffffffffffffffffffffffffffffffffffffffff168373ffffffffffffffffffffffffffffffffffffffff16141561209b576040517f08c379a000000000000000000000000000000000000000000000000000000000815260040161209290613d17565b60405180910390fd5b80600560008573ffffffffffffffffffffffffffffffffffffffff1673ffffffffffffffffffffffffffffffffffffffff16815260200190815260200160002060008473ffffffffffffffffffffffffffffffffffffffff1673ffffffffffffffffffffffffffffffffffffffff16815260200190815260200160002060006101000a81548160ff0219169083151502179055508173ffffffffffffffffffffffffffffffffffffffff168373ffffffffffffffffffffffffffffffffffffffff167f17307eab39ab6107e8899845ad3d59bd9653f200f220920489ca2b5937696c318360405161218c9190613bba565b60405180910390a3505050565b6121a4848484611c21565b6121b0848484846125be565b6121ef576040517f08c379a00000000000000000000000000000000000000000000000000000000081526004016121e690613c37565b60405180910390fd5b50505050565b606061220082611af4565b61223f576040517f08c379a000000000000000000000000000000000000000000000000000000000815260040161223690613df7565b60405180910390fd5b6000600a6000848152602001908152602001600020805461225f906141bc565b80601f016020809104026020016040519081016040528092919081815260200182805461228b906141bc565b80156122d85780601f106122ad576101008083540402835291602001916122d8565b820191906000526020600020905b8154815290600101906020018083116122bb57829003601f168201915b5050505050905060006122e9612755565b90506000815114156122ff578192505050612342565b60008251111561233457808260405160200161231c929190613b2f565b60405160208183030381529060405292505050612342565b61233d8461276c565b925050505b919050565b600081600001549050919050565b6001816000016000828254019250508190555050565b612385828260405180602001604052806000815250612813565b5050565b600060405180608001604052808481526020013373ffffffffffffffffffffffffffffffffffffffff16815260200182815260200183815250600f6000600d5481526020019081526020016000206000820151816000015560208201518160010160006101000a81548173ffffffffffffffffffffffffffffffffffffffff021916908373ffffffffffffffffffffffffffffffffffffffff16021790555060408201518160020155606082015181600301908051906020019061244e92919061321e565b50905050600d60008154809291906124659061421f565b91905055506001600e60003373ffffffffffffffffffffffffffffffffffffffff1673ffffffffffffffffffffffffffffffffffffffff16815260200190815260200160002060006101000a81548160ff021916908315150217905550505050565b60007f80ac58cd000000000000000000000000000000000000000000000000000000007bffffffffffffffffffffffffffffffffffffffffffffffffffffffff1916827bffffffffffffffffffffffffffffffffffffffffffffffffffffffff1916148061259257507f5b5e139f000000000000000000000000000000000000000000000000000000007bffffffffffffffffffffffffffffffffffffffffffffffffffffffff1916827bffffffffffffffffffffffffffffffffffffffffffffffffffffffff1916145b806125a257506125a18261286e565b5b9050919050565b6125b48383836128d8565b505050565b505050565b60006125df8473ffffffffffffffffffffffffffffffffffffffff166129ec565b15612748578373ffffffffffffffffffffffffffffffffffffffff1663150b7a02612608611b60565b8786866040518563ffffffff1660e01b815260040161262a9493929190613b6e565b602060405180830381600087803b15801561264457600080fd5b505af192505050801561267557506040513d601f19601f8201168201806040525081019061267291906135ca565b60015b6126f8573d80600081146126a5576040519150601f19603f3d011682016040523d82523d6000602084013e6126aa565b606091505b506000815114156126f0576040517f08c379a00000000000000000000000000000000000000000000000000000000081526004016126e790613c37565b60405180910390fd5b805181602001fd5b63150b7a0260e01b7bffffffffffffffffffffffffffffffffffffffffffffffffffffffff1916817bffffffffffffffffffffffffffffffffffffffffffffffffffffffff19161491505061274d565b600190505b949350505050565b606060405180602001604052806000815250905090565b606061277782611af4565b6127b6576040517f08c379a00000000000000000000000000000000000000000000000000000000081526004016127ad90613e57565b60405180910390fd5b60006127c0612755565b905060008151116127e0576040518060200160405280600081525061280b565b806127ea84612a0f565b6040516020016127fb929190613b2f565b6040516020818303038152906040525b915050919050565b61281d8383612bbc565b61282a60008484846125be565b612869576040517f08c379a000000000000000000000000000000000000000000000000000000000815260040161286090613c37565b60405180910390fd5b505050565b60007f01ffc9a7000000000000000000000000000000000000000000000000000000007bffffffffffffffffffffffffffffffffffffffffffffffffffffffff1916827bffffffffffffffffffffffffffffffffffffffffffffffffffffffff1916149050919050565b6128e3838383612d96565b600073ffffffffffffffffffffffffffffffffffffffff168373ffffffffffffffffffffffffffffffffffffffff1614156129265761292181612d9b565b612965565b8173ffffffffffffffffffffffffffffffffffffffff168373ffffffffffffffffffffffffffffffffffffffff1614612964576129638382612de4565b5b5b600073ffffffffffffffffffffffffffffffffffffffff168273ffffffffffffffffffffffffffffffffffffffff1614156129a8576129a381612f51565b6129e7565b8273ffffffffffffffffffffffffffffffffffffffff168273ffffffffffffffffffffffffffffffffffffffff16146129e6576129e58282613094565b5b5b505050565b6000808273ffffffffffffffffffffffffffffffffffffffff163b119050919050565b60606000821415612a57576040518060400160405280600181526020017f30000000000000000000000000000000000000000000000000000000000000008152509050612bb7565b600082905060005b60008214612a89578080612a729061421f565b915050600a82612a829190614065565b9150612a5f565b60008167ffffffffffffffff811115612acb577f4e487b7100000000000000000000000000000000000000000000000000000000600052604160045260246000fd5b6040519080825280601f01601f191660200182016040528015612afd5781602001600182028036833780820191505090505b5090505b60008514612bb057600182612b169190614096565b9150600a85612b259190614268565b6030612b31919061400f565b60f81b818381518110612b6d577f4e487b7100000000000000000000000000000000000000000000000000000000600052603260045260246000fd5b60200101907effffffffffffffffffffffffffffffffffffffffffffffffffffffffffffff1916908160001a905350600a85612ba99190614065565b9450612b01565b8093505050505b919050565b600073ffffffffffffffffffffffffffffffffffffffff168273ffffffffffffffffffffffffffffffffffffffff161415612c2c576040517f08c379a0000000000000000000000000000000000000000000000000000000008152600401612c2390613dd7565b60405180910390fd5b612c3581611af4565b15612c75576040517f08c379a0000000000000000000000000000000000000000000000000000000008152600401612c6c90613c97565b60405180910390fd5b612c81600083836125a9565b6001600360008473ffffffffffffffffffffffffffffffffffffffff1673ffffffffffffffffffffffffffffffffffffffff1681526020019081526020016000206000828254612cd1919061400f565b92505081905550816002600083815260200190815260200160002060006101000a81548173ffffffffffffffffffffffffffffffffffffffff021916908373ffffffffffffffffffffffffffffffffffffffff160217905550808273ffffffffffffffffffffffffffffffffffffffff16600073ffffffffffffffffffffffffffffffffffffffff167fddf252ad1be2c89b69c2b068fc378daa952ba7f163c4a11628f55a4df523b3ef60405160405180910390a4612d92600083836125b9565b5050565b505050565b6008805490506009600083815260200190815260200160002081905550600881908060018154018082558091505060019003906000526020600020016000909190919091505550565b60006001612df184611285565b612dfb9190614096565b9050600060076000848152602001908152602001600020549050818114612ee0576000600660008673ffffffffffffffffffffffffffffffffffffffff1673ffffffffffffffffffffffffffffffffffffffff168152602001908152602001600020600084815260200190815260200160002054905080600660008773ffffffffffffffffffffffffffffffffffffffff1673ffffffffffffffffffffffffffffffffffffffff168152602001908152602001600020600084815260200190815260200160002081905550816007600083815260200190815260200160002081905550505b6007600084815260200190815260200160002060009055600660008573ffffffffffffffffffffffffffffffffffffffff1673ffffffffffffffffffffffffffffffffffffffff16815260200190815260200160002060008381526020019081526020016000206000905550505050565b60006001600880549050612f659190614096565b9050600060096000848152602001908152602001600020549050600060088381548110612fbb577f4e487b7100000000000000000000000000000000000000000000000000000000600052603260045260246000fd5b906000526020600020015490508060088381548110613003577f4e487b7100000000000000000000000000000000000000000000000000000000600052603260045260246000fd5b906000526020600020018190555081600960008381526020019081526020016000208190555060096000858152602001908152602001600020600090556008805480613078577f4e487b7100000000000000000000000000000000000000000000000000000000600052603160045260246000fd5b6001900381819060005260206000200160009055905550505050565b600061309f83611285565b905081600660008573ffffffffffffffffffffffffffffffffffffffff1673ffffffffffffffffffffffffffffffffffffffff168152602001908152602001600020600083815260200190815260200160002081905550806007600084815260200190815260200160002081905550505050565b82805461311f906141bc565b90600052602060002090601f016020900481019282613141576000855561318f565b82601f10613152578054855561318f565b8280016001018555821561318f57600052602060002091601f016020900482015b8281111561318e578254825591600101919060010190613173565b5b50905061319c91906132a4565b5090565b5080546131ac906141bc565b6000825580601f106131be57506131dd565b601f0160209004906000526020600020908101906131dc91906132a4565b5b50565b604051806080016040528060008152602001600073ffffffffffffffffffffffffffffffffffffffff16815260200160008152602001606081525090565b82805461322a906141bc565b90600052602060002090601f01602090048101928261324c5760008555613293565b82601f1061326557805160ff1916838001178555613293565b82800160010185558215613293579182015b82811115613292578251825591602001919060010190613277565b5b5090506132a091906132a4565b5090565b5b808211156132bd5760008160009055506001016132a5565b5090565b60006132d46132cf84613f59565b613f34565b9050828152602081018484840111156132ec57600080fd5b6132f7848285614150565b509392505050565b600061331261330d84613f8a565b613f34565b90508281526020810184848401111561332a57600080fd5b613335848285614150565b509392505050565b60008135905061334c81614978565b92915050565b6000813590506133618161498f565b92915050565b600081359050613376816149a6565b92915050565b60008151905061338b816149a6565b92915050565b600082601f8301126133a257600080fd5b81356133b28482602086016132c1565b91505092915050565b600082601f8301126133cc57600080fd5b81356133dc8482602086016132ff565b91505092915050565b6000813590506133f4816149bd565b92915050565b60006020828403121561340c57600080fd5b600061341a8482850161333d565b91505092915050565b6000806040838503121561343657600080fd5b60006134448582860161333d565b92505060206134558582860161333d565b9150509250929050565b60008060006060848603121561347457600080fd5b60006134828682870161333d565b93505060206134938682870161333d565b92505060406134a4868287016133e5565b9150509250925092565b600080600080608085870312156134c457600080fd5b60006134d28782880161333d565b94505060206134e38782880161333d565b93505060406134f4878288016133e5565b925050606085013567ffffffffffffffff81111561351157600080fd5b61351d87828801613391565b91505092959194509250565b6000806040838503121561353c57600080fd5b600061354a8582860161333d565b925050602061355b85828601613352565b9150509250929050565b6000806040838503121561357857600080fd5b60006135868582860161333d565b9250506020613597858286016133e5565b9150509250929050565b6000602082840312156135b357600080fd5b60006135c184828501613367565b91505092915050565b6000602082840312156135dc57600080fd5b60006135ea8482850161337c565b91505092915050565b60006020828403121561360557600080fd5b600082013567ffffffffffffffff81111561361f57600080fd5b61362b848285016133bb565b91505092915050565b60006020828403121561364657600080fd5b6000613654848285016133e5565b91505092915050565b613666816140dc565b82525050565b613675816140ca565b82525050565b613684816140ee565b82525050565b600061369582613fbb565b61369f8185613fd1565b93506136af81856020860161415f565b6136b881614355565b840191505092915050565b60006136ce82613fc6565b6136d88185613fe2565b93506136e881856020860161415f565b6136f181614355565b840191505092915050565b600061370782613fc6565b6137118185613ff3565b935061372181856020860161415f565b61372a81614355565b840191505092915050565b600061374082613fc6565b61374a8185614004565b935061375a81856020860161415f565b80840191505092915050565b6000613773600f83613ff3565b915061377e82614366565b602082019050919050565b6000613796602b83613ff3565b91506137a18261438f565b604082019050919050565b60006137b9603283613ff3565b91506137c4826143de565b604082019050919050565b60006137dc602683613ff3565b91506137e78261442d565b604082019050919050565b60006137ff602583613ff3565b915061380a8261447c565b604082019050919050565b6000613822601c83613ff3565b915061382d826144cb565b602082019050919050565b6000613845601583613ff3565b9150613850826144f4565b602082019050919050565b6000613868601983613ff3565b91506138738261451d565b602082019050919050565b600061388b602483613ff3565b915061389682614546565b604082019050919050565b60006138ae601983613ff3565b91506138b982614595565b602082019050919050565b60006138d1602c83613ff3565b91506138dc826145be565b604082019050919050565b60006138f4601a83613ff3565b91506138ff8261460d565b602082019050919050565b6000613917603883613ff3565b915061392282614636565b604082019050919050565b600061393a602a83613ff3565b915061394582614685565b604082019050919050565b600061395d602983613ff3565b9150613968826146d4565b604082019050919050565b6000613980602083613ff3565b915061398b82614723565b602082019050919050565b60006139a3603183613ff3565b91506139ae8261474c565b604082019050919050565b60006139c6602c83613ff3565b91506139d18261479b565b604082019050919050565b60006139e9602083613ff3565b91506139f4826147ea565b602082019050919050565b6000613a0c602f83613ff3565b9150613a1782614813565b604082019050919050565b6000613a2f602183613ff3565b9150613a3a82614862565b604082019050919050565b6000613a52603183613ff3565b9150613a5d826148b1565b604082019050919050565b6000613a75602c83613ff3565b9150613a8082614900565b604082019050919050565b6000613a98601983613ff3565b9150613aa38261494f565b602082019050919050565b6000608083016000830151613ac66000860182613b11565b506020830151613ad9602086018261365d565b506040830151613aec6040860182613b11565b5060608301518482036060860152613b0482826136c3565b9150508091505092915050565b613b1a81614146565b82525050565b613b2981614146565b82525050565b6000613b3b8285613735565b9150613b478284613735565b91508190509392505050565b6000602082019050613b68600083018461366c565b92915050565b6000608082019050613b83600083018761366c565b613b90602083018661366c565b613b9d6040830185613b20565b8181036060830152613baf818461368a565b905095945050505050565b6000602082019050613bcf600083018461367b565b92915050565b60006020820190508181036000830152613bef81846136fc565b905092915050565b60006020820190508181036000830152613c1081613766565b9050919050565b60006020820190508181036000830152613c3081613789565b9050919050565b60006020820190508181036000830152613c50816137ac565b9050919050565b60006020820190508181036000830152613c70816137cf565b9050919050565b60006020820190508181036000830152613c90816137f2565b9050919050565b60006020820190508181036000830152613cb081613815565b9050919050565b60006020820190508181036000830152613cd081613838565b9050919050565b60006020820190508181036000830152613cf08161385b565b9050919050565b60006020820190508181036000830152613d108161387e565b9050919050565b60006020820190508181036000830152613d30816138a1565b9050919050565b60006020820190508181036000830152613d50816138c4565b9050919050565b60006020820190508181036000830152613d70816138e7565b9050919050565b60006020820190508181036000830152613d908161390a565b9050919050565b60006020820190508181036000830152613db08161392d565b9050919050565b60006020820190508181036000830152613dd081613950565b9050919050565b60006020820190508181036000830152613df081613973565b9050919050565b60006020820190508181036000830152613e1081613996565b9050919050565b60006020820190508181036000830152613e30816139b9565b9050919050565b60006020820190508181036000830152613e50816139dc565b9050919050565b60006020820190508181036000830152613e70816139ff565b9050919050565b60006020820190508181036000830152613e9081613a22565b9050919050565b60006020820190508181036000830152613eb081613a45565b9050919050565b60006020820190508181036000830152613ed081613a68565b9050919050565b60006020820190508181036000830152613ef081613a8b565b9050919050565b60006020820190508181036000830152613f118184613aae565b905092915050565b6000602082019050613f2e6000830184613b20565b92915050565b6000613f3e613f4f565b9050613f4a82826141ee565b919050565b6000604051905090565b600067ffffffffffffffff821115613f7457613f73614326565b5b613f7d82614355565b9050602081019050919050565b600067ffffffffffffffff821115613fa557613fa4614326565b5b613fae82614355565b9050602081019050919050565b600081519050919050565b600081519050919050565b600082825260208201905092915050565b600082825260208201905092915050565b600082825260208201905092915050565b600081905092915050565b600061401a82614146565b915061402583614146565b9250827fffffffffffffffffffffffffffffffffffffffffffffffffffffffffffffffff0382111561405a57614059614299565b5b828201905092915050565b600061407082614146565b915061407b83614146565b92508261408b5761408a6142c8565b5b828204905092915050565b60006140a182614146565b91506140ac83614146565b9250828210156140bf576140be614299565b5b828203905092915050565b60006140d582614126565b9050919050565b60006140e782614126565b9050919050565b60008115159050919050565b60007fffffffff0000000000000000000000000000000000000000000000000000000082169050919050565b600073ffffffffffffffffffffffffffffffffffffffff82169050919050565b6000819050919050565b82818337600083830152505050565b60005b8381101561417d578082015181840152602081019050614162565b8381111561418c576000848401525b50505050565b600061419d82614146565b915060008214156141b1576141b0614299565b5b600182039050919050565b600060028204905060018216806141d457607f821691505b602082108114156141e8576141e76142f7565b5b50919050565b6141f782614355565b810181811067ffffffffffffffff8211171561421657614215614326565b5b80604052505050565b600061422a82614146565b91507fffffffffffffffffffffffffffffffffffffffffffffffffffffffffffffffff82141561425d5761425c614299565b5b600182019050919050565b600061427382614146565b915061427e83614146565b92508261428e5761428d6142c8565b5b828206905092915050565b7f4e487b7100000000000000000000000000000000000000000000000000000000600052601160045260246000fd5b7f4e487b7100000000000000000000000000000000000000000000000000000000600052601260045260246000fd5b7f4e487b7100000000000000000000000000000000000000000000000000000000600052602260045260246000fd5b7f4e487b7100000000000000000000000000000000000000000000000000000000600052604160045260246000fd5b6000601f19601f8301169050919050565b7f496e76616c696420616464726573730000000000000000000000000000000000600082015250565b7f455243373231456e756d657261626c653a206f776e657220696e646578206f7560008201527f74206f6620626f756e6473000000000000000000000000000000000000000000602082015250565b7f4552433732313a207472616e7366657220746f206e6f6e20455243373231526560008201527f63656976657220696d706c656d656e7465720000000000000000000000000000602082015250565b7f4f776e61626c653a206e6577206f776e657220697320746865207a65726f206160008201527f6464726573730000000000000000000000000000000000000000000000000000602082015250565b7f4552433732313a207472616e736665722066726f6d20696e636f72726563742060008201527f6f776e6572000000000000000000000000000000000000000000000000000000602082015250565b7f4552433732313a20746f6b656e20616c7265616479206d696e74656400000000600082015250565b7f63616e27742072656d6f76652074686973206e66740000000000000000000000600082015250565b7f796f752063616e7420757067726164652074686973206e667400000000000000600082015250565b7f4552433732313a207472616e7366657220746f20746865207a65726f2061646460008201527f7265737300000000000000000000000000000000000000000000000000000000602082015250565b7f4552433732313a20617070726f766520746f2063616c6c657200000000000000600082015250565b7f4552433732313a206f70657261746f7220717565727920666f72206e6f6e657860008201527f697374656e7420746f6b656e0000000000000000000000000000000000000000602082015250565b7f63616e2774207377616c6c6f7720796f7572206f776e206e6674000000000000600082015250565b7f4552433732313a20617070726f76652063616c6c6572206973206e6f74206f7760008201527f6e6572206e6f7220617070726f76656420666f7220616c6c0000000000000000602082015250565b7f4552433732313a2062616c616e636520717565727920666f7220746865207a6560008201527f726f206164647265737300000000000000000000000000000000000000000000602082015250565b7f4552433732313a206f776e657220717565727920666f72206e6f6e657869737460008201527f656e7420746f6b656e0000000000000000000000000000000000000000000000602082015250565b7f4552433732313a206d696e7420746f20746865207a65726f2061646472657373600082015250565b7f45524337323155524953746f726167653a2055524920717565727920666f722060008201527f6e6f6e6578697374656e7420746f6b656e000000000000000000000000000000602082015250565b7f4552433732313a20617070726f76656420717565727920666f72206e6f6e657860008201527f697374656e7420746f6b656e0000000000000000000000000000000000000000602082015250565b7f4f776e61626c653a2063616c6c6572206973206e6f7420746865206f776e6572600082015250565b7f4552433732314d657461646174613a2055524920717565727920666f72206e6f60008201527f6e6578697374656e7420746f6b656e0000000000000000000000000000000000602082015250565b7f4552433732313a20617070726f76616c20746f2063757272656e74206f776e6560008201527f7200000000000000000000000000000000000000000000000000000000000000602082015250565b7f4552433732313a207472616e736665722063616c6c6572206973206e6f74206f60008201527f776e6572206e6f7220617070726f766564000000000000000000000000000000602082015250565b7f455243373231456e756d657261626c653a20676c6f62616c20696e646578206f60008201527f7574206f6620626f756e64730000000000000000000000000000000000000000602082015250565b7f596f752068617665206c6573732076616c756520706f696e7400000000000000600082015250565b614981816140ca565b811461498c57600080fd5b50565b614998816140ee565b81146149a357600080fd5b50565b6149af816140fa565b81146149ba57600080fd5b50565b6149c681614146565b81146149d157600080fd5b5056fea2646970667358221220669eca51f0f482a18cfdb6063b6fec838b4c40d7149e3de346343d38fb70912a64736f6c63430008040033",
  "linkReferences": {},
  "deployedLinkReferences": {}
}