{
  "_format": "hh-sol-artifact-1",
  "contractName": "MyNFT",
  "sourceName": "contracts/MyNFT.sol",
  "abi": [
    {
      "inputs": [],
      "stateMutability": "nonpayable",
      "type": "constructor"
    },
    {
      "anonymous": false,
      "inputs": [
        {
          "indexed": true,
          "internalType": "address",
          "name": "owner",
          "type": "address"
        },
        {
          "indexed": true,
          "internalType": "address",
          "name": "approved",
          "type": "address"
        },
        {
          "indexed": true,
          "internalType": "uint256",
          "name": "tokenId",
          "type": "uint256"
        }
      ],
      "name": "Approval",
      "type": "event"
    },
    {
      "anonymous": false,
      "inputs": [
        {
          "indexed": true,
          "internalType": "address",
          "name": "owner",
          "type": "address"
        },
        {
          "indexed": true,
          "internalType": "address",
          "name": "operator",
          "type": "address"
        },
        {
          "indexed": false,
          "internalType": "bool",
          "name": "approved",
          "type": "bool"
        }
      ],
      "name": "ApprovalForAll",
      "type": "event"
    },
    {
      "anonymous": false,
      "inputs": [
        {
          "indexed": true,
          "internalType": "address",
          "name": "previousOwner",
          "type": "address"
        },
        {
          "indexed": true,
          "internalType": "address",
          "name": "newOwner",
          "type": "address"
        }
      ],
      "name": "OwnershipTransferred",
      "type": "event"
    },
    {
      "anonymous": false,
      "inputs": [
        {
          "indexed": true,
          "internalType": "address",
          "name": "from",
          "type": "address"
        },
        {
          "indexed": true,
          "internalType": "address",
          "name": "to",
          "type": "address"
        },
        {
          "indexed": true,
          "internalType": "uint256",
          "name": "tokenId",
          "type": "uint256"
        }
      ],
      "name": "Transfer",
      "type": "event"
    },
    {
      "inputs": [
        {
          "internalType": "uint256",
          "name": "_index",
          "type": "uint256"
        }
      ],
      "name": "addToWarRoom",
      "outputs": [],
      "stateMutability": "nonpayable",
      "type": "function"
    },
    {
      "inputs": [
        {
          "internalType": "address",
          "name": "to",
          "type": "address"
        },
        {
          "internalType": "uint256",
          "name": "tokenId",
          "type": "uint256"
        }
      ],
      "name": "approve",
      "outputs": [],
      "stateMutability": "nonpayable",
      "type": "function"
    },
    {
      "inputs": [
        {
          "internalType": "address",
          "name": "owner",
          "type": "address"
        }
      ],
      "name": "balanceOf",
      "outputs": [
        {
          "internalType": "uint256",
          "name": "",
          "type": "uint256"
        }
      ],
      "stateMutability": "view",
      "type": "function"
    },
    {
      "inputs": [
        {
          "internalType": "address",
          "name": "_address",
          "type": "address"
        },
        {
          "internalType": "uint256",
          "name": "_index",
          "type": "uint256"
        }
      ],
      "name": "canSwallowNFT",
      "outputs": [
        {
          "internalType": "bool",
          "name": "",
          "type": "bool"
        }
      ],
      "stateMutability": "view",
      "type": "function"
    },
    {
      "inputs": [
        {
          "internalType": "uint256",
          "name": "tokenId",
          "type": "uint256"
        }
      ],
      "name": "getApproved",
      "outputs": [
        {
          "internalType": "address",
          "name": "",
          "type": "address"
        }
      ],
      "stateMutability": "view",
      "type": "function"
    },
    {
      "inputs": [],
      "name": "getNFTlength",
      "outputs": [
        {
          "internalType": "uint256",
          "name": "",
          "type": "uint256"
        }
      ],
      "stateMutability": "view",
      "type": "function"
    },
    {
      "inputs": [
        {
          "internalType": "uint256",
          "name": "_index",
          "type": "uint256"
        }
      ],
      "name": "getNft",
      "outputs": [
        {
          "components": [
            {
              "internalType": "uint256",
              "name": "tokenId",
              "type": "uint256"
            },
            {
              "internalType": "address payable",
              "name": "owner",
              "type": "address"
            },
            {
              "internalType": "uint256",
              "name": "powerValue",
              "type": "uint256"
            },
            {
              "internalType": "bool",
              "name": "canFight",
              "type": "bool"
            }
          ],
          "internalType": "struct MyNFT.NFT",
          "name": "",
          "type": "tuple"
        }
      ],
      "stateMutability": "view",
      "type": "function"
    },
    {
      "inputs": [
        {
          "internalType": "address",
          "name": "_address",
          "type": "address"
        }
      ],
      "name": "hasMinted",
      "outputs": [
        {
          "internalType": "bool",
          "name": "",
          "type": "bool"
        }
      ],
      "stateMutability": "view",
      "type": "function"
    },
    {
      "inputs": [
        {
          "internalType": "address",
          "name": "owner",
          "type": "address"
        },
        {
          "internalType": "address",
          "name": "operator",
          "type": "address"
        }
      ],
      "name": "isApprovedForAll",
      "outputs": [
        {
          "internalType": "bool",
          "name": "",
          "type": "bool"
        }
      ],
      "stateMutability": "view",
      "type": "function"
    },
    {
      "inputs": [
        {
          "internalType": "string",
          "name": "uri",
          "type": "string"
        }
      ],
      "name": "mint",
      "outputs": [],
      "stateMutability": "payable",
      "type": "function"
    },
    {
      "inputs": [
        {
          "internalType": "address",
          "name": "",
          "type": "address"
        }
      ],
      "name": "minters",
      "outputs": [
        {
          "internalType": "bool",
          "name": "",
          "type": "bool"
        }
      ],
      "stateMutability": "view",
      "type": "function"
    },
    {
      "inputs": [],
      "name": "name",
      "outputs": [
        {
          "internalType": "string",
          "name": "",
          "type": "string"
        }
      ],
      "stateMutability": "view",
      "type": "function"
    },
    {
      "inputs": [],
      "name": "owner",
      "outputs": [
        {
          "internalType": "address",
          "name": "",
          "type": "address"
        }
      ],
      "stateMutability": "view",
      "type": "function"
    },
    {
      "inputs": [
        {
          "internalType": "uint256",
          "name": "tokenId",
          "type": "uint256"
        }
      ],
      "name": "ownerOf",
      "outputs": [
        {
          "internalType": "address",
          "name": "",
          "type": "address"
        }
      ],
      "stateMutability": "view",
      "type": "function"
    },
    {
      "inputs": [
        {
          "internalType": "address",
          "name": "",
          "type": "address"
        }
      ],
      "name": "playerpowervalue",
      "outputs": [
        {
          "internalType": "uint256",
          "name": "",
          "type": "uint256"
        }
      ],
      "stateMutability": "view",
      "type": "function"
    },
    {
      "inputs": [
        {
          "internalType": "uint256",
          "name": "_index",
          "type": "uint256"
        }
      ],
      "name": "removeFromWarRoom",
      "outputs": [],
      "stateMutability": "nonpayable",
      "type": "function"
    },
    {
      "inputs": [],
      "name": "renounceOwnership",
      "outputs": [],
      "stateMutability": "nonpayable",
      "type": "function"
    },
    {
      "inputs": [
        {
          "internalType": "address",
          "name": "from",
          "type": "address"
        },
        {
          "internalType": "address",
          "name": "to",
          "type": "address"
        },
        {
          "internalType": "uint256",
          "name": "tokenId",
          "type": "uint256"
        }
      ],
      "name": "safeTransferFrom",
      "outputs": [],
      "stateMutability": "nonpayable",
      "type": "function"
    },
    {
      "inputs": [
        {
          "internalType": "address",
          "name": "from",
          "type": "address"
        },
        {
          "internalType": "address",
          "name": "to",
          "type": "address"
        },
        {
          "internalType": "uint256",
          "name": "tokenId",
          "type": "uint256"
        },
        {
          "internalType": "bytes",
          "name": "_data",
          "type": "bytes"
        }
      ],
      "name": "safeTransferFrom",
      "outputs": [],
      "stateMutability": "nonpayable",
      "type": "function"
    },
    {
      "inputs": [
        {
          "internalType": "address",
          "name": "operator",
          "type": "address"
        },
        {
          "internalType": "bool",
          "name": "approved",
          "type": "bool"
        }
      ],
      "name": "setApprovalForAll",
      "outputs": [],
      "stateMutability": "nonpayable",
      "type": "function"
    },
    {
      "inputs": [
        {
          "internalType": "bytes4",
          "name": "interfaceId",
          "type": "bytes4"
        }
      ],
      "name": "supportsInterface",
      "outputs": [
        {
          "internalType": "bool",
          "name": "",
          "type": "bool"
        }
      ],
      "stateMutability": "view",
      "type": "function"
    },
    {
      "inputs": [
        {
          "internalType": "uint256",
          "name": "_index",
          "type": "uint256"
        }
      ],
      "name": "swallowNFT",
      "outputs": [],
      "stateMutability": "nonpayable",
      "type": "function"
    },
    {
      "inputs": [],
      "name": "symbol",
      "outputs": [
        {
          "internalType": "string",
          "name": "",
          "type": "string"
        }
      ],
      "stateMutability": "view",
      "type": "function"
    },
    {
      "inputs": [
        {
          "internalType": "uint256",
          "name": "index",
          "type": "uint256"
        }
      ],
      "name": "tokenByIndex",
      "outputs": [
        {
          "internalType": "uint256",
          "name": "",
          "type": "uint256"
        }
      ],
      "stateMutability": "view",
      "type": "function"
    },
    {
      "inputs": [
        {
          "internalType": "address",
          "name": "owner",
          "type": "address"
        },
        {
          "internalType": "uint256",
          "name": "index",
          "type": "uint256"
        }
      ],
      "name": "tokenOfOwnerByIndex",
      "outputs": [
        {
          "internalType": "uint256",
          "name": "",
          "type": "uint256"
        }
      ],
      "stateMutability": "view",
      "type": "function"
    },
    {
      "inputs": [
        {
          "internalType": "uint256",
          "name": "tokenId",
          "type": "uint256"
        }
      ],
      "name": "tokenURI",
      "outputs": [
        {
          "internalType": "string",
          "name": "",
          "type": "string"
        }
      ],
      "stateMutability": "view",
      "type": "function"
    },
    {
      "inputs": [],
      "name": "totalSupply",
      "outputs": [
        {
          "internalType": "uint256",
          "name": "",
          "type": "uint256"
        }
      ],
      "stateMutability": "view",
      "type": "function"
    },
    {
      "inputs": [
        {
          "internalType": "address",
          "name": "from",
          "type": "address"
        },
        {
          "internalType": "address",
          "name": "to",
          "type": "address"
        },
        {
          "internalType": "uint256",
          "name": "tokenId",
          "type": "uint256"
        }
      ],
      "name": "transferFrom",
      "outputs": [],
      "stateMutability": "nonpayable",
      "type": "function"
    },
    {
      "inputs": [
        {
          "internalType": "address",
          "name": "newOwner",
          "type": "address"
        }
      ],
      "name": "transferOwnership",
      "outputs": [],
      "stateMutability": "nonpayable",
      "type": "function"
    },
    {
      "inputs": [
        {
          "internalType": "uint256",
          "name": "_index",
          "type": "uint256"
        }
      ],
      "name": "upgradeNFT",
      "outputs": [],
      "stateMutability": "payable",
      "type": "function"
    }
  ],
  "bytecode": "0x60806040526706f05b59d3b20000600e553480156200001d57600080fd5b506040518060400160405280600781526020017f47414d454e4654000000000000000000000000000000000000000000000000008152506040518060400160405280600481526020017f474e4654000000000000000000000000000000000000000000000000000000008152508160009080519060200190620000a2929190620001b2565b508060019080519060200190620000bb929190620001b2565b505050620000de620000d2620000e460201b60201c565b620000ec60201b60201c565b620002c7565b600033905090565b6000600b60009054906101000a900473ffffffffffffffffffffffffffffffffffffffff16905081600b60006101000a81548173ffffffffffffffffffffffffffffffffffffffff021916908373ffffffffffffffffffffffffffffffffffffffff1602179055508173ffffffffffffffffffffffffffffffffffffffff168173ffffffffffffffffffffffffffffffffffffffff167f8be0079c531659141344cd1fd0a4f28419497f9722a3daafe3b4186f6b6457e060405160405180910390a35050565b828054620001c09062000262565b90600052602060002090601f016020900481019282620001e4576000855562000230565b82601f10620001ff57805160ff191683800117855562000230565b8280016001018555821562000230579182015b828111156200022f57825182559160200191906001019062000212565b5b5090506200023f919062000243565b5090565b5b808211156200025e57600081600090555060010162000244565b5090565b600060028204905060018216806200027b57607f821691505b6020821081141562000292576200029162000298565b5b50919050565b7f4e487b7100000000000000000000000000000000000000000000000000000000600052602260045260246000fd5b61519880620002d76000396000f3fe6080604052600436106101cd5760003560e01c8063715018a6116100f7578063c87b56dd11610095578063f2fde38b11610064578063f2fde38b146106a2578063f46eccc4146106cb578063ffb5897314610708578063ffdbac4314610745576101cd565b8063c87b56dd146105e1578063d41daa2b1461061e578063d85d3d2714610649578063e985e9c514610665576101cd565b806395d89b41116100d157806395d89b411461053b578063a22cb46514610566578063b0a4cab71461058f578063b88d4fde146105b8576101cd565b8063715018a6146104dd5780638da5cb5b146104f457806390690c9a1461051f576101cd565b80632f745c591161016f5780634cce7a1e1161013e5780634cce7a1e146103fd5780634f6ccce7146104265780636352211e1461046357806370a08231146104a0576101cd565b80632f745c591461031d57806338e21cce1461035a57806341f63bfd1461039757806342842e0e146103d4576101cd565b8063095ea7b3116101ab578063095ea7b31461027757806314dfa341146102a057806318160ddd146102c957806323b872dd146102f4576101cd565b806301ffc9a7146101d257806306fdde031461020f578063081812fc1461023a575b600080fd5b3480156101de57600080fd5b506101f960048036038101906101f49190613a76565b610782565b6040516102069190614188565b60405180910390f35b34801561021b57600080fd5b50610224610794565b60405161023191906141a3565b60405180910390f35b34801561024657600080fd5b50610261600480360381019061025c9190613b0d565b610826565b60405161026e9190614121565b60405180910390f35b34801561028357600080fd5b5061029e60048036038101906102999190613a3a565b6108ab565b005b3480156102ac57600080fd5b506102c760048036038101906102c29190613b0d565b6109c3565b005b3480156102d557600080fd5b506102de610e99565b6040516102eb91906145c0565b60405180910390f35b34801561030057600080fd5b5061031b60048036038101906103169190613934565b610ea6565b005b34801561032957600080fd5b50610344600480360381019061033f9190613a3a565b610f06565b60405161035191906145c0565b60405180910390f35b34801561036657600080fd5b50610381600480360381019061037c91906138cf565b610fab565b60405161038e9190614188565b60405180910390f35b3480156103a357600080fd5b506103be60048036038101906103b99190613b0d565b61108b565b6040516103cb91906145a5565b60405180910390f35b3480156103e057600080fd5b506103fb60048036038101906103f69190613934565b61119d565b005b34801561040957600080fd5b50610424600480360381019061041f9190613b0d565b6111bd565b005b34801561043257600080fd5b5061044d60048036038101906104489190613b0d565b61137a565b60405161045a91906145c0565b60405180910390f35b34801561046f57600080fd5b5061048a60048036038101906104859190613b0d565b611411565b6040516104979190614121565b60405180910390f35b3480156104ac57600080fd5b506104c760048036038101906104c291906138cf565b6114c3565b6040516104d491906145c0565b60405180910390f35b3480156104e957600080fd5b506104f261157b565b005b34801561050057600080fd5b50610509611603565b6040516105169190614121565b60405180910390f35b61053960048036038101906105349190613b0d565b61162d565b005b34801561054757600080fd5b506105506118b1565b60405161055d91906141a3565b60405180910390f35b34801561057257600080fd5b5061058d600480360381019061058891906139fe565b611943565b005b34801561059b57600080fd5b506105b660048036038101906105b19190613b0d565b611959565b005b3480156105c457600080fd5b506105df60048036038101906105da9190613983565b611b15565b005b3480156105ed57600080fd5b5061060860048036038101906106039190613b0d565b611b77565b60405161061591906141a3565b60405180910390f35b34801561062a57600080fd5b50610633611b89565b60405161064091906145c0565b60405180910390f35b610663600480360381019061065e9190613ac8565b611b9a565b005b34801561067157600080fd5b5061068c600480360381019061068791906138f8565b611c5e565b6040516106999190614188565b60405180910390f35b3480156106ae57600080fd5b506106c960048036038101906106c491906138cf565b611cf2565b005b3480156106d757600080fd5b506106f260048036038101906106ed91906138cf565b611dea565b6040516106ff9190614188565b60405180910390f35b34801561071457600080fd5b5061072f600480360381019061072a91906138cf565b611e0a565b60405161073c91906145c0565b60405180910390f35b34801561075157600080fd5b5061076c60048036038101906107679190613a3a565b611e22565b6040516107799190614188565b60405180910390f35b600061078d82611fc6565b9050919050565b6060600080546107a390614802565b80601f01602080910402602001604051908101604052809291908181526020018280546107cf90614802565b801561081c5780601f106107f15761010080835404028352916020019161081c565b820191906000526020600020905b8154815290600101906020018083116107ff57829003601f168201915b5050505050905090565b600061083182612040565b610870576040517f08c379a000000000000000000000000000000000000000000000000000000000815260040161086790614445565b60405180910390fd5b6004600083815260200190815260200160002060009054906101000a900473ffffffffffffffffffffffffffffffffffffffff169050919050565b60006108b682611411565b90508073ffffffffffffffffffffffffffffffffffffffff168373ffffffffffffffffffffffffffffffffffffffff161415610927576040517f08c379a000000000000000000000000000000000000000000000000000000000815260040161091e906144c5565b60405180910390fd5b8073ffffffffffffffffffffffffffffffffffffffff166109466120ac565b73ffffffffffffffffffffffffffffffffffffffff16148061097557506109748161096f6120ac565b611c5e565b5b6109b4576040517f08c379a00000000000000000000000000000000000000000000000000000000081526004016109ab90614365565b60405180910390fd5b6109be83836120b4565b505050565b806109e36010600083815260200190815260200160002060000154612040565b610a22576040517f08c379a0000000000000000000000000000000000000000000000000000000008152600401610a19906142a5565b60405180910390fd5b600f60003373ffffffffffffffffffffffffffffffffffffffff1673ffffffffffffffffffffffffffffffffffffffff16815260200190815260200160002060009054906101000a900460ff16610aae576040517f08c379a0000000000000000000000000000000000000000000000000000000008152600401610aa5906141c5565b60405180910390fd5b816010600082815260200190815260200160002060030160009054906101000a900460ff16610b12576040517f08c379a0000000000000000000000000000000000000000000000000000000008152600401610b09906144e5565b60405180910390fd5b601160006010600084815260200190815260200160002060010160009054906101000a900473ffffffffffffffffffffffffffffffffffffffff1673ffffffffffffffffffffffffffffffffffffffff1673ffffffffffffffffffffffffffffffffffffffff16815260200190815260200160002054601160003373ffffffffffffffffffffffffffffffffffffffff1673ffffffffffffffffffffffffffffffffffffffff1681526020019081526020016000205411610c08576040517f08c379a0000000000000000000000000000000000000000000000000000000008152600401610bff90614565565b60405180910390fd5b6010600084815260200190815260200160002060010160009054906101000a900473ffffffffffffffffffffffffffffffffffffffff1673ffffffffffffffffffffffffffffffffffffffff163373ffffffffffffffffffffffffffffffffffffffff161415610cad576040517f08c379a0000000000000000000000000000000000000000000000000000000008152600401610ca490614325565b60405180910390fd5b6010600084815260200190815260200160002060030160009054906101000a900460ff16610d10576040517f08c379a0000000000000000000000000000000000000000000000000000000008152600401610d0790614465565b60405180910390fd5b610d313033601060008781526020019081526020016000206000015461216d565b6010600084815260200190815260200160002060020154601160006010600087815260200190815260200160002060010160009054906101000a900473ffffffffffffffffffffffffffffffffffffffff1673ffffffffffffffffffffffffffffffffffffffff1673ffffffffffffffffffffffffffffffffffffffff1681526020019081526020016000206000828254610dcc9190614706565b925050819055506010600084815260200190815260200160002060020154601160003373ffffffffffffffffffffffffffffffffffffffff1673ffffffffffffffffffffffffffffffffffffffff1681526020019081526020016000206000828254610e38919061467f565b92505081905550336010600085815260200190815260200160002060010160006101000a81548173ffffffffffffffffffffffffffffffffffffffff021916908373ffffffffffffffffffffffffffffffffffffffff160217905550505050565b6000600880549050905090565b610eb7610eb16120ac565b826123d4565b610ef6576040517f08c379a0000000000000000000000000000000000000000000000000000000008152600401610eed90614505565b60405180910390fd5b610f0183838361216d565b505050565b6000610f11836114c3565b8210610f52576040517f08c379a0000000000000000000000000000000000000000000000000000000008152600401610f49906141e5565b60405180910390fd5b600660008473ffffffffffffffffffffffffffffffffffffffff1673ffffffffffffffffffffffffffffffffffffffff168152602001908152602001600020600083815260200190815260200160002054905092915050565b600081600073ffffffffffffffffffffffffffffffffffffffff168173ffffffffffffffffffffffffffffffffffffffff16141561101e576040517f08c379a0000000000000000000000000000000000000000000000000000000008152600401611015906141c5565b60405180910390fd5b60011515600f60008573ffffffffffffffffffffffffffffffffffffffff1673ffffffffffffffffffffffffffffffffffffffff16815260200190815260200160002060009054906101000a900460ff16151514156110805760019150611085565b600091505b50919050565b6110936136d1565b816110b36010600083815260200190815260200160002060000154612040565b6110f2576040517f08c379a00000000000000000000000000000000000000000000000000000000081526004016110e9906142a5565b60405180910390fd5b60106000848152602001908152602001600020604051806080016040529081600082015481526020016001820160009054906101000a900473ffffffffffffffffffffffffffffffffffffffff1673ffffffffffffffffffffffffffffffffffffffff1673ffffffffffffffffffffffffffffffffffffffff168152602001600282015481526020016003820160009054906101000a900460ff161515151581525050915050919050565b6111b883838360405180602001604052806000815250611b15565b505050565b806111dd6010600083815260200190815260200160002060000154612040565b61121c576040517f08c379a0000000000000000000000000000000000000000000000000000000008152600401611213906142a5565b60405180910390fd5b816010600082815260200190815260200160002060010160009054906101000a900473ffffffffffffffffffffffffffffffffffffffff1673ffffffffffffffffffffffffffffffffffffffff163373ffffffffffffffffffffffffffffffffffffffff16146112c1576040517f08c379a00000000000000000000000000000000000000000000000000000000081526004016112b890614585565b60405180910390fd5b6010600084815260200190815260200160002060030160009054906101000a900460ff1615611325576040517f08c379a000000000000000000000000000000000000000000000000000000000815260040161131c90614545565b60405180910390fd5b60016010600085815260200190815260200160002060030160006101000a81548160ff0219169083151502179055506113753330601060008781526020019081526020016000206000015461216d565b505050565b6000611384610e99565b82106113c5576040517f08c379a00000000000000000000000000000000000000000000000000000000081526004016113bc90614525565b60405180910390fd5b600882815481106113ff577f4e487b7100000000000000000000000000000000000000000000000000000000600052603260045260246000fd5b90600052602060002001549050919050565b6000806002600084815260200190815260200160002060009054906101000a900473ffffffffffffffffffffffffffffffffffffffff169050600073ffffffffffffffffffffffffffffffffffffffff168173ffffffffffffffffffffffffffffffffffffffff1614156114ba576040517f08c379a00000000000000000000000000000000000000000000000000000000081526004016114b1906143a5565b60405180910390fd5b80915050919050565b60008073ffffffffffffffffffffffffffffffffffffffff168273ffffffffffffffffffffffffffffffffffffffff161415611534576040517f08c379a000000000000000000000000000000000000000000000000000000000815260040161152b90614385565b60405180910390fd5b600360008373ffffffffffffffffffffffffffffffffffffffff1673ffffffffffffffffffffffffffffffffffffffff168152602001908152602001600020549050919050565b6115836120ac565b73ffffffffffffffffffffffffffffffffffffffff166115a1611603565b73ffffffffffffffffffffffffffffffffffffffff16146115f7576040517f08c379a00000000000000000000000000000000000000000000000000000000081526004016115ee90614485565b60405180910390fd5b61160160006124b2565b565b6000600b60009054906101000a900473ffffffffffffffffffffffffffffffffffffffff16905090565b8061164d6010600083815260200190815260200160002060000154612040565b61168c576040517f08c379a0000000000000000000000000000000000000000000000000000000008152600401611683906142a5565b60405180910390fd5b816010600082815260200190815260200160002060010160009054906101000a900473ffffffffffffffffffffffffffffffffffffffff1673ffffffffffffffffffffffffffffffffffffffff163373ffffffffffffffffffffffffffffffffffffffff1614611731576040517f08c379a000000000000000000000000000000000000000000000000000000000815260040161172890614585565b60405180910390fd5b600e543414611775576040517f08c379a000000000000000000000000000000000000000000000000000000000815260040161176c90614345565b60405180910390fd5b60106000848152602001908152602001600020600201600081548092919061179c90614865565b9190505550601160003373ffffffffffffffffffffffffffffffffffffffff1673ffffffffffffffffffffffffffffffffffffffff16815260200190815260200160002060008154809291906117f190614865565b91905055506000611800611603565b73ffffffffffffffffffffffffffffffffffffffff16600e546040516118259061410c565b60006040518083038185875af1925050503d8060008114611862576040519150601f19603f3d011682016040523d82523d6000602084013e611867565b606091505b50509050806118ab576040517f08c379a00000000000000000000000000000000000000000000000000000000081526004016118a290614245565b60405180910390fd5b50505050565b6060600180546118c090614802565b80601f01602080910402602001604051908101604052809291908181526020018280546118ec90614802565b80156119395780601f1061190e57610100808354040283529160200191611939565b820191906000526020600020905b81548152906001019060200180831161191c57829003601f168201915b5050505050905090565b61195561194e6120ac565b8383612578565b5050565b806119796010600083815260200190815260200160002060000154612040565b6119b8576040517f08c379a00000000000000000000000000000000000000000000000000000000081526004016119af906142a5565b60405180910390fd5b816010600082815260200190815260200160002060010160009054906101000a900473ffffffffffffffffffffffffffffffffffffffff1673ffffffffffffffffffffffffffffffffffffffff163373ffffffffffffffffffffffffffffffffffffffff1614611a5d576040517f08c379a0000000000000000000000000000000000000000000000000000000008152600401611a5490614585565b60405180910390fd5b6010600084815260200190815260200160002060030160009054906101000a900460ff16611ac0576040517f08c379a0000000000000000000000000000000000000000000000000000000008152600401611ab790614465565b60405180910390fd5b60006010600085815260200190815260200160002060030160006101000a81548160ff021916908315150217905550611b103033601060008781526020019081526020016000206000015461216d565b505050565b611b26611b206120ac565b836123d4565b611b65576040517f08c379a0000000000000000000000000000000000000000000000000000000008152600401611b5c90614505565b60405180910390fd5b611b71848484846126e5565b50505050565b6060611b8282612741565b9050919050565b6000611b95600d612893565b905090565b60008282905011611be0576040517f08c379a0000000000000000000000000000000000000000000000000000000008152600401611bd7906143e5565b60405180910390fd5b611bea600c6128a1565b6000611bf6600c612893565b9050611c0233826128b7565b611c508184848080601f016020809104026020016040519081016040528093929190818152602001838380828437600081840152601f19601f820116905080830192505050505050506128d5565b611c5981612949565b505050565b6000600560008473ffffffffffffffffffffffffffffffffffffffff1673ffffffffffffffffffffffffffffffffffffffff16815260200190815260200160002060008373ffffffffffffffffffffffffffffffffffffffff1673ffffffffffffffffffffffffffffffffffffffff16815260200190815260200160002060009054906101000a900460ff16905092915050565b611cfa6120ac565b73ffffffffffffffffffffffffffffffffffffffff16611d18611603565b73ffffffffffffffffffffffffffffffffffffffff1614611d6e576040517f08c379a0000000000000000000000000000000000000000000000000000000008152600401611d6590614485565b60405180910390fd5b600073ffffffffffffffffffffffffffffffffffffffff168173ffffffffffffffffffffffffffffffffffffffff161415611dde576040517f08c379a0000000000000000000000000000000000000000000000000000000008152600401611dd590614225565b60405180910390fd5b611de7816124b2565b50565b600f6020528060005260406000206000915054906101000a900460ff1681565b60116020528060005260406000206000915090505481565b600081611e446010600083815260200190815260200160002060000154612040565b611e83576040517f08c379a0000000000000000000000000000000000000000000000000000000008152600401611e7a906142a5565b60405180910390fd5b83600073ffffffffffffffffffffffffffffffffffffffff168173ffffffffffffffffffffffffffffffffffffffff161415611ef4576040517f08c379a0000000000000000000000000000000000000000000000000000000008152600401611eeb906141c5565b60405180910390fd5b601160006010600087815260200190815260200160002060010160009054906101000a900473ffffffffffffffffffffffffffffffffffffffff1673ffffffffffffffffffffffffffffffffffffffff1673ffffffffffffffffffffffffffffffffffffffff16815260200190815260200160002054601160008773ffffffffffffffffffffffffffffffffffffffff1673ffffffffffffffffffffffffffffffffffffffff168152602001908152602001600020541115611fb95760019250611fbe565b600092505b505092915050565b60007f780e9d63000000000000000000000000000000000000000000000000000000007bffffffffffffffffffffffffffffffffffffffffffffffffffffffff1916827bffffffffffffffffffffffffffffffffffffffffffffffffffffffff19161480612039575061203882612a85565b5b9050919050565b60008073ffffffffffffffffffffffffffffffffffffffff166002600084815260200190815260200160002060009054906101000a900473ffffffffffffffffffffffffffffffffffffffff1673ffffffffffffffffffffffffffffffffffffffff1614159050919050565b600033905090565b816004600083815260200190815260200160002060006101000a81548173ffffffffffffffffffffffffffffffffffffffff021916908373ffffffffffffffffffffffffffffffffffffffff160217905550808273ffffffffffffffffffffffffffffffffffffffff1661212783611411565b73ffffffffffffffffffffffffffffffffffffffff167f8c5be1e5ebec7d5bd14f71427d1e84f3dd0314c0f7b2291e5b200ac8c7c3b92560405160405180910390a45050565b8273ffffffffffffffffffffffffffffffffffffffff1661218d82611411565b73ffffffffffffffffffffffffffffffffffffffff16146121e3576040517f08c379a00000000000000000000000000000000000000000000000000000000081526004016121da90614265565b60405180910390fd5b600073ffffffffffffffffffffffffffffffffffffffff168273ffffffffffffffffffffffffffffffffffffffff161415612253576040517f08c379a000000000000000000000000000000000000000000000000000000000815260040161224a906142c5565b60405180910390fd5b61225e838383612b67565b6122696000826120b4565b6001600360008573ffffffffffffffffffffffffffffffffffffffff1673ffffffffffffffffffffffffffffffffffffffff16815260200190815260200160002060008282546122b99190614706565b925050819055506001600360008473ffffffffffffffffffffffffffffffffffffffff1673ffffffffffffffffffffffffffffffffffffffff1681526020019081526020016000206000828254612310919061467f565b92505081905550816002600083815260200190815260200160002060006101000a81548173ffffffffffffffffffffffffffffffffffffffff021916908373ffffffffffffffffffffffffffffffffffffffff160217905550808273ffffffffffffffffffffffffffffffffffffffff168473ffffffffffffffffffffffffffffffffffffffff167fddf252ad1be2c89b69c2b068fc378daa952ba7f163c4a11628f55a4df523b3ef60405160405180910390a46123cf838383612b77565b505050565b60006123df82612040565b61241e576040517f08c379a000000000000000000000000000000000000000000000000000000000815260040161241590614305565b60405180910390fd5b600061242983611411565b90508073ffffffffffffffffffffffffffffffffffffffff168473ffffffffffffffffffffffffffffffffffffffff16148061249857508373ffffffffffffffffffffffffffffffffffffffff1661248084610826565b73ffffffffffffffffffffffffffffffffffffffff16145b806124a957506124a88185611c5e565b5b91505092915050565b6000600b60009054906101000a900473ffffffffffffffffffffffffffffffffffffffff16905081600b60006101000a81548173ffffffffffffffffffffffffffffffffffffffff021916908373ffffffffffffffffffffffffffffffffffffffff1602179055508173ffffffffffffffffffffffffffffffffffffffff168173ffffffffffffffffffffffffffffffffffffffff167f8be0079c531659141344cd1fd0a4f28419497f9722a3daafe3b4186f6b6457e060405160405180910390a35050565b8173ffffffffffffffffffffffffffffffffffffffff168373ffffffffffffffffffffffffffffffffffffffff1614156125e7576040517f08c379a00000000000000000000000000000000000000000000000000000000081526004016125de906142e5565b60405180910390fd5b80600560008573ffffffffffffffffffffffffffffffffffffffff1673ffffffffffffffffffffffffffffffffffffffff16815260200190815260200160002060008473ffffffffffffffffffffffffffffffffffffffff1673ffffffffffffffffffffffffffffffffffffffff16815260200190815260200160002060006101000a81548160ff0219169083151502179055508173ffffffffffffffffffffffffffffffffffffffff168373ffffffffffffffffffffffffffffffffffffffff167f17307eab39ab6107e8899845ad3d59bd9653f200f220920489ca2b5937696c31836040516126d89190614188565b60405180910390a3505050565b6126f084848461216d565b6126fc84848484612b7c565b61273b576040517f08c379a000000000000000000000000000000000000000000000000000000000815260040161273290614205565b60405180910390fd5b50505050565b606061274c82612040565b61278b576040517f08c379a000000000000000000000000000000000000000000000000000000000815260040161278290614425565b60405180910390fd5b6000600a600084815260200190815260200160002080546127ab90614802565b80601f01602080910402602001604051908101604052809291908181526020018280546127d790614802565b80156128245780601f106127f957610100808354040283529160200191612824565b820191906000526020600020905b81548152906001019060200180831161280757829003601f168201915b505050505090506000612835612d13565b905060008151141561284b57819250505061288e565b6000825111156128805780826040516020016128689291906140e8565b6040516020818303038152906040529250505061288e565b61288984612d2a565b925050505b919050565b600081600001549050919050565b6001816000016000828254019250508190555050565b6128d1828260405180602001604052806000815250612dd1565b5050565b6128de82612040565b61291d576040517f08c379a0000000000000000000000000000000000000000000000000000000008152600401612914906143c5565b60405180910390fd5b80600a60008481526020019081526020016000209080519060200190612944929190613711565b505050565b600060405180608001604052808381526020013373ffffffffffffffffffffffffffffffffffffffff1681526020018281526020016000151581525060106000612993600d612893565b81526020019081526020016000206000820151816000015560208201518160010160006101000a81548173ffffffffffffffffffffffffffffffffffffffff021916908373ffffffffffffffffffffffffffffffffffffffff1602179055506040820151816002015560608201518160030160006101000a81548160ff021916908315150217905550905050612a29600d6128a1565b6001600f60003373ffffffffffffffffffffffffffffffffffffffff1673ffffffffffffffffffffffffffffffffffffffff16815260200190815260200160002060006101000a81548160ff0219169083151502179055505050565b60007f80ac58cd000000000000000000000000000000000000000000000000000000007bffffffffffffffffffffffffffffffffffffffffffffffffffffffff1916827bffffffffffffffffffffffffffffffffffffffffffffffffffffffff19161480612b5057507f5b5e139f000000000000000000000000000000000000000000000000000000007bffffffffffffffffffffffffffffffffffffffffffffffffffffffff1916827bffffffffffffffffffffffffffffffffffffffffffffffffffffffff1916145b80612b605750612b5f82612e2c565b5b9050919050565b612b72838383612e96565b505050565b505050565b6000612b9d8473ffffffffffffffffffffffffffffffffffffffff16612faa565b15612d06578373ffffffffffffffffffffffffffffffffffffffff1663150b7a02612bc66120ac565b8786866040518563ffffffff1660e01b8152600401612be8949392919061413c565b602060405180830381600087803b158015612c0257600080fd5b505af1925050508015612c3357506040513d601f19601f82011682018060405250810190612c309190613a9f565b60015b612cb6573d8060008114612c63576040519150601f19603f3d011682016040523d82523d6000602084013e612c68565b606091505b50600081511415612cae576040517f08c379a0000000000000000000000000000000000000000000000000000000008152600401612ca590614205565b60405180910390fd5b805181602001fd5b63150b7a0260e01b7bffffffffffffffffffffffffffffffffffffffffffffffffffffffff1916817bffffffffffffffffffffffffffffffffffffffffffffffffffffffff191614915050612d0b565b600190505b949350505050565b606060405180602001604052806000815250905090565b6060612d3582612040565b612d74576040517f08c379a0000000000000000000000000000000000000000000000000000000008152600401612d6b906144a5565b60405180910390fd5b6000612d7e612d13565b90506000815111612d9e5760405180602001604052806000815250612dc9565b80612da884612fcd565b604051602001612db99291906140e8565b6040516020818303038152906040525b915050919050565b612ddb838361317a565b612de86000848484612b7c565b612e27576040517f08c379a0000000000000000000000000000000000000000000000000000000008152600401612e1e90614205565b60405180910390fd5b505050565b60007f01ffc9a7000000000000000000000000000000000000000000000000000000007bffffffffffffffffffffffffffffffffffffffffffffffffffffffff1916827bffffffffffffffffffffffffffffffffffffffffffffffffffffffff1916149050919050565b612ea1838383613354565b600073ffffffffffffffffffffffffffffffffffffffff168373ffffffffffffffffffffffffffffffffffffffff161415612ee457612edf81613359565b612f23565b8173ffffffffffffffffffffffffffffffffffffffff168373ffffffffffffffffffffffffffffffffffffffff1614612f2257612f2183826133a2565b5b5b600073ffffffffffffffffffffffffffffffffffffffff168273ffffffffffffffffffffffffffffffffffffffff161415612f6657612f618161350f565b612fa5565b8273ffffffffffffffffffffffffffffffffffffffff168273ffffffffffffffffffffffffffffffffffffffff1614612fa457612fa38282613652565b5b5b505050565b6000808273ffffffffffffffffffffffffffffffffffffffff163b119050919050565b60606000821415613015576040518060400160405280600181526020017f30000000000000000000000000000000000000000000000000000000000000008152509050613175565b600082905060005b6000821461304757808061303090614865565b915050600a8261304091906146d5565b915061301d565b60008167ffffffffffffffff811115613089577f4e487b7100000000000000000000000000000000000000000000000000000000600052604160045260246000fd5b6040519080825280601f01601f1916602001820160405280156130bb5781602001600182028036833780820191505090505b5090505b6000851461316e576001826130d49190614706565b9150600a856130e391906148ae565b60306130ef919061467f565b60f81b81838151811061312b577f4e487b7100000000000000000000000000000000000000000000000000000000600052603260045260246000fd5b60200101907effffffffffffffffffffffffffffffffffffffffffffffffffffffffffffff1916908160001a905350600a8561316791906146d5565b94506130bf565b8093505050505b919050565b600073ffffffffffffffffffffffffffffffffffffffff168273ffffffffffffffffffffffffffffffffffffffff1614156131ea576040517f08c379a00000000000000000000000000000000000000000000000000000000081526004016131e190614405565b60405180910390fd5b6131f381612040565b15613233576040517f08c379a000000000000000000000000000000000000000000000000000000000815260040161322a90614285565b60405180910390fd5b61323f60008383612b67565b6001600360008473ffffffffffffffffffffffffffffffffffffffff1673ffffffffffffffffffffffffffffffffffffffff168152602001908152602001600020600082825461328f919061467f565b92505081905550816002600083815260200190815260200160002060006101000a81548173ffffffffffffffffffffffffffffffffffffffff021916908373ffffffffffffffffffffffffffffffffffffffff160217905550808273ffffffffffffffffffffffffffffffffffffffff16600073ffffffffffffffffffffffffffffffffffffffff167fddf252ad1be2c89b69c2b068fc378daa952ba7f163c4a11628f55a4df523b3ef60405160405180910390a461335060008383612b77565b5050565b505050565b6008805490506009600083815260200190815260200160002081905550600881908060018154018082558091505060019003906000526020600020016000909190919091505550565b600060016133af846114c3565b6133b99190614706565b905060006007600084815260200190815260200160002054905081811461349e576000600660008673ffffffffffffffffffffffffffffffffffffffff1673ffffffffffffffffffffffffffffffffffffffff168152602001908152602001600020600084815260200190815260200160002054905080600660008773ffffffffffffffffffffffffffffffffffffffff1673ffffffffffffffffffffffffffffffffffffffff168152602001908152602001600020600084815260200190815260200160002081905550816007600083815260200190815260200160002081905550505b6007600084815260200190815260200160002060009055600660008573ffffffffffffffffffffffffffffffffffffffff1673ffffffffffffffffffffffffffffffffffffffff16815260200190815260200160002060008381526020019081526020016000206000905550505050565b600060016008805490506135239190614706565b9050600060096000848152602001908152602001600020549050600060088381548110613579577f4e487b7100000000000000000000000000000000000000000000000000000000600052603260045260246000fd5b9060005260206000200154905080600883815481106135c1577f4e487b7100000000000000000000000000000000000000000000000000000000600052603260045260246000fd5b906000526020600020018190555081600960008381526020019081526020016000208190555060096000858152602001908152602001600020600090556008805480613636577f4e487b7100000000000000000000000000000000000000000000000000000000600052603160045260246000fd5b6001900381819060005260206000200160009055905550505050565b600061365d836114c3565b905081600660008573ffffffffffffffffffffffffffffffffffffffff1673ffffffffffffffffffffffffffffffffffffffff168152602001908152602001600020600083815260200190815260200160002081905550806007600084815260200190815260200160002081905550505050565b604051806080016040528060008152602001600073ffffffffffffffffffffffffffffffffffffffff168152602001600081526020016000151581525090565b82805461371d90614802565b90600052602060002090601f01602090048101928261373f5760008555613786565b82601f1061375857805160ff1916838001178555613786565b82800160010185558215613786579182015b8281111561378557825182559160200191906001019061376a565b5b5090506137939190613797565b5090565b5b808211156137b0576000816000905550600101613798565b5090565b60006137c76137c284614600565b6145db565b9050828152602081018484840111156137df57600080fd5b6137ea8482856147c0565b509392505050565b60008135905061380181615106565b92915050565b6000813590506138168161511d565b92915050565b60008135905061382b81615134565b92915050565b60008151905061384081615134565b92915050565b600082601f83011261385757600080fd5b81356138678482602086016137b4565b91505092915050565b60008083601f84011261388257600080fd5b8235905067ffffffffffffffff81111561389b57600080fd5b6020830191508360018202830111156138b357600080fd5b9250929050565b6000813590506138c98161514b565b92915050565b6000602082840312156138e157600080fd5b60006138ef848285016137f2565b91505092915050565b6000806040838503121561390b57600080fd5b6000613919858286016137f2565b925050602061392a858286016137f2565b9150509250929050565b60008060006060848603121561394957600080fd5b6000613957868287016137f2565b9350506020613968868287016137f2565b9250506040613979868287016138ba565b9150509250925092565b6000806000806080858703121561399957600080fd5b60006139a7878288016137f2565b94505060206139b8878288016137f2565b93505060406139c9878288016138ba565b925050606085013567ffffffffffffffff8111156139e657600080fd5b6139f287828801613846565b91505092959194509250565b60008060408385031215613a1157600080fd5b6000613a1f858286016137f2565b9250506020613a3085828601613807565b9150509250929050565b60008060408385031215613a4d57600080fd5b6000613a5b858286016137f2565b9250506020613a6c858286016138ba565b9150509250929050565b600060208284031215613a8857600080fd5b6000613a968482850161381c565b91505092915050565b600060208284031215613ab157600080fd5b6000613abf84828501613831565b91505092915050565b60008060208385031215613adb57600080fd5b600083013567ffffffffffffffff811115613af557600080fd5b613b0185828601613870565b92509250509250929050565b600060208284031215613b1f57600080fd5b6000613b2d848285016138ba565b91505092915050565b613b3f8161474c565b82525050565b613b4e8161473a565b82525050565b613b5d8161475e565b82525050565b613b6c8161475e565b82525050565b6000613b7d82614631565b613b878185614647565b9350613b978185602086016147cf565b613ba08161499b565b840191505092915050565b6000613bb68261463c565b613bc08185614663565b9350613bd08185602086016147cf565b613bd98161499b565b840191505092915050565b6000613bef8261463c565b613bf98185614674565b9350613c098185602086016147cf565b80840191505092915050565b6000613c22600f83614663565b9150613c2d826149ac565b602082019050919050565b6000613c45602b83614663565b9150613c50826149d5565b604082019050919050565b6000613c68603283614663565b9150613c7382614a24565b604082019050919050565b6000613c8b602683614663565b9150613c9682614a73565b604082019050919050565b6000613cae600f83614663565b9150613cb982614ac2565b602082019050919050565b6000613cd1602583614663565b9150613cdc82614aeb565b604082019050919050565b6000613cf4601c83614663565b9150613cff82614b3a565b602082019050919050565b6000613d17601983614663565b9150613d2282614b63565b602082019050919050565b6000613d3a602483614663565b9150613d4582614b8c565b604082019050919050565b6000613d5d601983614663565b9150613d6882614bdb565b602082019050919050565b6000613d80602c83614663565b9150613d8b82614c04565b604082019050919050565b6000613da3601a83614663565b9150613dae82614c53565b602082019050919050565b6000613dc6601a83614663565b9150613dd182614c7c565b602082019050919050565b6000613de9603883614663565b9150613df482614ca5565b604082019050919050565b6000613e0c602a83614663565b9150613e1782614cf4565b604082019050919050565b6000613e2f602983614663565b9150613e3a82614d43565b604082019050919050565b6000613e52602e83614663565b9150613e5d82614d92565b604082019050919050565b6000613e75600983614663565b9150613e8082614de1565b602082019050919050565b6000613e98602083614663565b9150613ea382614e0a565b602082019050919050565b6000613ebb603183614663565b9150613ec682614e33565b604082019050919050565b6000613ede602c83614663565b9150613ee982614e82565b604082019050919050565b6000613f01600f83614663565b9150613f0c82614ed1565b602082019050919050565b6000613f24602083614663565b9150613f2f82614efa565b602082019050919050565b6000613f47602f83614663565b9150613f5282614f23565b604082019050919050565b6000613f6a602183614663565b9150613f7582614f72565b604082019050919050565b6000613f8d601483614663565b9150613f9882614fc1565b602082019050919050565b6000613fb0600083614658565b9150613fbb82614fea565b600082019050919050565b6000613fd3603183614663565b9150613fde82614fed565b604082019050919050565b6000613ff6602c83614663565b91506140018261503c565b604082019050919050565b6000614019601383614663565b91506140248261508b565b602082019050919050565b600061403c601983614663565b9150614047826150b4565b602082019050919050565b600061405f601b83614663565b915061406a826150dd565b602082019050919050565b60808201600082015161408b60008501826140ca565b50602082015161409e6020850182613b36565b5060408201516140b160408501826140ca565b5060608201516140c46060850182613b54565b50505050565b6140d3816147b6565b82525050565b6140e2816147b6565b82525050565b60006140f48285613be4565b91506141008284613be4565b91508190509392505050565b600061411782613fa3565b9150819050919050565b60006020820190506141366000830184613b45565b92915050565b60006080820190506141516000830187613b45565b61415e6020830186613b45565b61416b60408301856140d9565b818103606083015261417d8184613b72565b905095945050505050565b600060208201905061419d6000830184613b63565b92915050565b600060208201905081810360008301526141bd8184613bab565b905092915050565b600060208201905081810360008301526141de81613c15565b9050919050565b600060208201905081810360008301526141fe81613c38565b9050919050565b6000602082019050818103600083015261421e81613c5b565b9050919050565b6000602082019050818103600083015261423e81613c7e565b9050919050565b6000602082019050818103600083015261425e81613ca1565b9050919050565b6000602082019050818103600083015261427e81613cc4565b9050919050565b6000602082019050818103600083015261429e81613ce7565b9050919050565b600060208201905081810360008301526142be81613d0a565b9050919050565b600060208201905081810360008301526142de81613d2d565b9050919050565b600060208201905081810360008301526142fe81613d50565b9050919050565b6000602082019050818103600083015261431e81613d73565b9050919050565b6000602082019050818103600083015261433e81613d96565b9050919050565b6000602082019050818103600083015261435e81613db9565b9050919050565b6000602082019050818103600083015261437e81613ddc565b9050919050565b6000602082019050818103600083015261439e81613dff565b9050919050565b600060208201905081810360008301526143be81613e22565b9050919050565b600060208201905081810360008301526143de81613e45565b9050919050565b600060208201905081810360008301526143fe81613e68565b9050919050565b6000602082019050818103600083015261441e81613e8b565b9050919050565b6000602082019050818103600083015261443e81613eae565b9050919050565b6000602082019050818103600083015261445e81613ed1565b9050919050565b6000602082019050818103600083015261447e81613ef4565b9050919050565b6000602082019050818103600083015261449e81613f17565b9050919050565b600060208201905081810360008301526144be81613f3a565b9050919050565b600060208201905081810360008301526144de81613f5d565b9050919050565b600060208201905081810360008301526144fe81613f80565b9050919050565b6000602082019050818103600083015261451e81613fc6565b9050919050565b6000602082019050818103600083015261453e81613fe9565b9050919050565b6000602082019050818103600083015261455e8161400c565b9050919050565b6000602082019050818103600083015261457e8161402f565b9050919050565b6000602082019050818103600083015261459e81614052565b9050919050565b60006080820190506145ba6000830184614075565b92915050565b60006020820190506145d560008301846140d9565b92915050565b60006145e56145f6565b90506145f18282614834565b919050565b6000604051905090565b600067ffffffffffffffff82111561461b5761461a61496c565b5b6146248261499b565b9050602081019050919050565b600081519050919050565b600081519050919050565b600082825260208201905092915050565b600081905092915050565b600082825260208201905092915050565b600081905092915050565b600061468a826147b6565b9150614695836147b6565b9250827fffffffffffffffffffffffffffffffffffffffffffffffffffffffffffffffff038211156146ca576146c96148df565b5b828201905092915050565b60006146e0826147b6565b91506146eb836147b6565b9250826146fb576146fa61490e565b5b828204905092915050565b6000614711826147b6565b915061471c836147b6565b92508282101561472f5761472e6148df565b5b828203905092915050565b600061474582614796565b9050919050565b600061475782614796565b9050919050565b60008115159050919050565b60007fffffffff0000000000000000000000000000000000000000000000000000000082169050919050565b600073ffffffffffffffffffffffffffffffffffffffff82169050919050565b6000819050919050565b82818337600083830152505050565b60005b838110156147ed5780820151818401526020810190506147d2565b838111156147fc576000848401525b50505050565b6000600282049050600182168061481a57607f821691505b6020821081141561482e5761482d61493d565b5b50919050565b61483d8261499b565b810181811067ffffffffffffffff8211171561485c5761485b61496c565b5b80604052505050565b6000614870826147b6565b91507fffffffffffffffffffffffffffffffffffffffffffffffffffffffffffffffff8214156148a3576148a26148df565b5b600182019050919050565b60006148b9826147b6565b91506148c4836147b6565b9250826148d4576148d361490e565b5b828206905092915050565b7f4e487b7100000000000000000000000000000000000000000000000000000000600052601160045260246000fd5b7f4e487b7100000000000000000000000000000000000000000000000000000000600052601260045260246000fd5b7f4e487b7100000000000000000000000000000000000000000000000000000000600052602260045260246000fd5b7f4e487b7100000000000000000000000000000000000000000000000000000000600052604160045260246000fd5b6000601f19601f8301169050919050565b7f496e76616c696420616464726573730000000000000000000000000000000000600082015250565b7f455243373231456e756d657261626c653a206f776e657220696e646578206f7560008201527f74206f6620626f756e6473000000000000000000000000000000000000000000602082015250565b7f4552433732313a207472616e7366657220746f206e6f6e20455243373231526560008201527f63656976657220696d706c656d656e7465720000000000000000000000000000602082015250565b7f4f776e61626c653a206e6577206f776e657220697320746865207a65726f206160008201527f6464726573730000000000000000000000000000000000000000000000000000602082015250565b7f5472616e73666572206661696c65640000000000000000000000000000000000600082015250565b7f4552433732313a207472616e736665722066726f6d20696e636f72726563742060008201527f6f776e6572000000000000000000000000000000000000000000000000000000602082015250565b7f4552433732313a20746f6b656e20616c7265616479206d696e74656400000000600082015250565b7f5175657279206f66206e6f6e206578697374656e74204e465400000000000000600082015250565b7f4552433732313a207472616e7366657220746f20746865207a65726f2061646460008201527f7265737300000000000000000000000000000000000000000000000000000000602082015250565b7f4552433732313a20617070726f766520746f2063616c6c657200000000000000600082015250565b7f4552433732313a206f70657261746f7220717565727920666f72206e6f6e657860008201527f697374656e7420746f6b656e0000000000000000000000000000000000000000602082015250565b7f63616e2774207377616c6c6f7720796f7572206f776e206e6674000000000000600082015250565b7f596f75206e65656420746f2070617920746f2075706772616465000000000000600082015250565b7f4552433732313a20617070726f76652063616c6c6572206973206e6f74206f7760008201527f6e6572206e6f7220617070726f76656420666f7220616c6c0000000000000000602082015250565b7f4552433732313a2062616c616e636520717565727920666f7220746865207a6560008201527f726f206164647265737300000000000000000000000000000000000000000000602082015250565b7f4552433732313a206f776e657220717565727920666f72206e6f6e657869737460008201527f656e7420746f6b656e0000000000000000000000000000000000000000000000602082015250565b7f45524337323155524953746f726167653a2055524920736574206f66206e6f6e60008201527f6578697374656e7420746f6b656e000000000000000000000000000000000000602082015250565b7f456d707479207572690000000000000000000000000000000000000000000000600082015250565b7f4552433732313a206d696e7420746f20746865207a65726f2061646472657373600082015250565b7f45524337323155524953746f726167653a2055524920717565727920666f722060008201527f6e6f6e6578697374656e7420746f6b656e000000000000000000000000000000602082015250565b7f4552433732313a20617070726f76656420717565727920666f72206e6f6e657860008201527f697374656e7420746f6b656e0000000000000000000000000000000000000000602082015250565b7f4e6f7420696e2077617220726f6f6d0000000000000000000000000000000000600082015250565b7f4f776e61626c653a2063616c6c6572206973206e6f7420746865206f776e6572600082015250565b7f4552433732314d657461646174613a2055524920717565727920666f72206e6f60008201527f6e6578697374656e7420746f6b656e0000000000000000000000000000000000602082015250565b7f4552433732313a20617070726f76616c20746f2063757272656e74206f776e6560008201527f7200000000000000000000000000000000000000000000000000000000000000602082015250565b7f4e46542069736e277420696e207761727a6f6e65000000000000000000000000600082015250565b50565b7f4552433732313a207472616e736665722063616c6c6572206973206e6f74206f60008201527f776e6572206e6f7220617070726f766564000000000000000000000000000000602082015250565b7f455243373231456e756d657261626c653a20676c6f62616c20696e646578206f60008201527f7574206f6620626f756e64730000000000000000000000000000000000000000602082015250565b7f416c726561647920696e2077617220726f6f6d00000000000000000000000000600082015250565b7f596f752068617665206c6573732076616c756520706f696e7400000000000000600082015250565b7f596f7520617265206e6f7420746865204e46542773206f776e65720000000000600082015250565b61510f8161473a565b811461511a57600080fd5b50565b6151268161475e565b811461513157600080fd5b50565b61513d8161476a565b811461514857600080fd5b50565b615154816147b6565b811461515f57600080fd5b5056fea2646970667358221220b338532a23f89d2c3fbe33823bf4221e2c7981405632af5d7fdd11e3529e662a64736f6c63430008040033",
  "linkReferences": {},
  "deployedLinkReferences": {}
}